:020000040800F2
:10000000A8340120E1020008190D00081B0D0008AA
:100010001F0D0008230D0008270D00080000000038
:10002000000000000000000000000000290200089D
:100030002B0D0008000000007D020008E1390008D7
:10004000FB020008FB020008FB020008FB0200089C
:10005000FB020008FB020008530A0008FB0200082C
:10006000FB020008FB020008FB020008FB0200087C
:10007000FB020008FB020008FB020008FB0200086C
:10008000FB020008FB020008FB020008FB0200085C
:10009000FB020008FB020008FB020008FB0200084C
:1000A000FB020008FB020008FB020008FB0200083C
:1000B000FB020008FB020008FB020008FB0200082C
:1000C000FB020008FB020008FB020008FB0200081C
:1000D000FB020008FB020008FB020008FB0200080C
:1000E000FB020008FB020008FB020008FB020008FC
:1000F000FB020008FB020008FB020008FB020008EC
:10010000FB020008FB020008FB020008FB020008DB
:10011000FB020008FB020008FB020008FB020008CB
:10012000FB020008FB020008FB020008FB020008BB
:10013000FB020008FB020008FB020008FB020008AB
:10014000FB020008FB020008FB020008FB0200089B
:10015000FB020008FB020008FB020008FB0200088B
:10016000FB020008FB020008FB020008FB0200087B
:10017000FB020008FB020008FB020008FB0200086B
:10018000FB020008FB02000800F002F800F03CF857
:100190000AA090E8000C82448344AAF10107DA45E2
:1001A00001D100F031F8AFF2090EBAE80F0013F0F8
:1001B000010F18BFFB1A43F001031847FC4B000066
:1001C0001C4C0000103A24BF78C878C1FAD85207F6
:1001D00024BF30C830C144BF04680C6070470000C1
:1001E0000023002400250026103A28BF78C1FBD840
:1001F000520728BF30C148BF0B6070471FB504F0DD
:10020000B6FD1FBD10B510BD04F077FD1146FFF718
:10021000F5FF00F0B7FB04F095FD03B4FFF7F2FF24
:1002200003BC04F09DFD00002A4B19680868B0E883
:10023000F04F80F30988BFF36F8F4FF0000080F319
:10024000118870470000000006480068006880F3CD
:10025000088862B661B6BFF34F8FBFF36F8F00DFC0
:1002600000BF00BF08ED00E0DFF80C00016841F4BA
:1002700070010160704700BF88ED00E0EFF3098076
:10028000BFF36F8F134B1A681EF0100F08BF20EDDD
:10029000108A20E9F04F106008B44FF0500080F34E
:1002A0001188BFF34F8FBFF36F8F02F01AF84FF032
:1002B000000080F3118808BC19680868B0E8F04FA6
:1002C0001EF0100F08BFB0EC108A80F30988BFF34E
:1002D0006F8F704754000020EFF3058070470000D7
:1002E0000948804709480047FEE7FEE7FEE7FEE7CA
:1002F000FEE7FEE7FEE7FEE7FEE7FEE70448054906
:10030000054A064B70470000FD03000889010008FC
:10031000A82E0120A8340120A8300120A8300120F7
:100320000CB50020019000907648006840F48030C1
:100330007449086000BF7348006800F40030009002
:100340000198401C0190009818B90198B0F5A04F91
:10035000F1D16C48006800F4003010B10120009029
:1003600001E0002000900098012846D16548403007
:10037000006840F08050634940310860624800687E
:1003800040F44040604908605E48083000685D49BC
:10039000083108600846006840F4004008600846DC
:1003A000006840F4A05008605848091F0860081F02
:1003B000006840F08070091F086000BF5148006865
:1003C00000F000700028F9D040F205705049086034
:1003D0004C480830006820F003004A4908310860A2
:1003E0000846006840F00200086000BF4548083039
:1003F000006800F00C000828F8D10CBD10B5454885
:10040000006840F47000434908603E48006840F0CE
:1004100001003C49086000203A4908310860394829
:1004200000683D490840374908603C48091D08609C
:10043000081F006820F48020091F0860002031494F
:100440000C310860FFF76CFF4FF0006031498039D4
:10045000086010BD70B50020002202230024022194
:10046000284D08352D6805F00C0020B1042806D071
:10047000082834D107E02A4D2A4E356033E02A4D52
:10048000284E35602FE01F4D2D1D2D68C5F380547B
:100490001C4D2D1D2D6805F03F0154B1224DB5FBBB
:1004A000F1F5184E361D3668C6F3881605FB06F2C0
:1004B00009E01B4DB5FBF1F5124E361D3668C6F34B
:1004C000881605FB06F20F4D2D1D2D68C5F301455D
:1004D0006D1C6B00B2FBF3F5124E356003E0104D5E
:1004E000104E356000BF00BF064D08352D68C5F3BE
:1004F00003150E4E705D0B4D2D68C540094E3560DD
:1005000070BD0000003802400070004008544007F1
:10051000003C024088ED00E0FFFFF6FE10300024B2
:100520000024F4000000002000127A0004000020E3
:100530000020FE490860C860FD490860C860FD49A8
:100540000860C86040F2EE20FB4908600020C860E7
:10055000704738B504460020F84908600346024653
:1005600003210090204602F04DFE38BD10B5012059
:1005700000F0E5FA002000F0E2FA032000F0DFFAD4
:10058000022000F0DCFAEE48006830B1012808D003
:1005900002280AD0032810D10BE0002000F0C7FA8F
:1005A0000BE0032000F0C3FA07E0022000F0BFFADE
:1005B00003E0012000F0BBFA00BF00BF10BD08B58A
:1005C0000020DA49009000231A468868032102F0CF
:1005D00019FE0020D649009000231A46886803219E
:1005E00002F010FE0020D349009000231A468868CC
:1005F000032102F007FE0020CC49C860CC49C86046
:10060000CC49C860FFF7B2FF08BD10B5CC48006800
:10061000401CCB49086008460068042801D100202E
:100620000860FFF7A3FF10BD0FB430B531B1012949
:100630000AD002290ED0032918D111E000228DF82A
:1006400018200F22059211E003228DF8182028228D
:1006500005920BE002228DF818202D22059205E06C
:1006600001228DF818201422059200BF00BF05AAB0
:100670003CCA80E83C0030BC5DF814FB10B586B085
:10068000AA48C068E0B9A949D1E90201CDE9000151
:10069000A6480CC8AA48016802A8FFF7C5FFA348EE
:1006A00002A91EC91EC002F01BF8044600209F4983
:1006B0000090002322468868022102F0A3FD3EE05C
:1006C0009B48C068E0B99A49D1E90201CDE900012F
:1006D00097480CC89A48016802A8FFF7A5FF9448FC
:1006E00002A91EC91EC001F0FBFF0446002090496C
:1006F0000090002322468868022102F083FD1EE05C
:100700008C48C068D8B98B49D1E90201CDE9000114
:1007100088480CC88A48016802A8FFF785FF854809
:1007200002A91EC91EC001F0DBFF0446002081495A
:100730000090002322468868022102F063FD06B083
:1007400010BDF8B50546284602F0F5FF0446641CC6
:1007500079480068A0420FD901217A4803F012FCC1
:10076000012804D178480068401C77490860214678
:10077000284602F0F6FF33E00021284602F0F1FFA0
:1007800071480068B0F5FA7F02DDFFF777FF0CE0F3
:100790006948C068012802D1FFF737FF05E06648C5
:1007A000C068022801D1FFF70AFF00206249C86033
:1007B000654908600346024603210090284602F07E
:1007C00021FD01205D49086001F08AFF06460020F6
:1007D00003463246012100905C48006802F012FD99
:1007E000F8BD38B5054601205249C860284602F0D8
:1007F000A2FF0446641C4F480068A04212D84D492D
:10080000087900F09CF900204A49C8600346024676
:1008100003210090284602F0F5FC0021284602F052
:10082000A0FF07E04349087900F091F921462846E6
:1008300002F097FF38BD38B5054601203C49C86035
:10084000284602F078FF0446641C39480068A0423C
:1008500012D83749087900F072F900203449C8608D
:100860000346024603210090284602F0CBFC0021FB
:10087000284602F076FF07E02D49087900F067F975
:100880002146284602F06DFF38BD38B505460120E7
:100890002649C860284602F04EFF0446641C2348DF
:1008A0000068A04212D82149087900F048F90020D8
:1008B0001E49C8600346024603210090284602F004
:1008C000A1FC0021284602F04CFF07E017490879F7
:1008D00000F03DF92146284602F043FF38BD08B537
:1008E000002500231A4619461948006800F0B7FC95
:1008F00000BF00235A1E19461548006800F0AFFCDF
:100900000E4800680028F4D10B49886802F013FFF4
:1009100004460948C06858BB0B480068401C0A4997
:100920000860002501F0DCFE064613E0D800002038
:10093000E8000020F800002008010020240000202A
:100940001C000020000002402000002028000020A1
:100950002C00002000204A4900900023324688687D
:10096000022102F04FFC4648C068401C4449C86060
:10097000601B9628BDD325464148C068401C4049AD
:10098000C860B6E71CB54FF4407003F01BF90120B6
:1009900000F0AEF8002000F0ABF8032000F0A8F85B
:1009A000022000F0A5F80121002000F0DDF8FFF79B
:1009B000BFFDFFF7DBFD002000900346802231A140
:1009C0000190324801F0DFF8AFF24110002301221C
:1009D0004FF47A7100902EA002F033FE3049886007
:1009E000AFF2AD10002301224FF47A7100902DA0D8
:1009F00002F027FE2F498860AFF219200023012260
:100A00004FF47A7100902CA002F01BFE2E498860F2
:100A100003220021012000F031FA2C490860AFF2D6
:100A2000DD20002301221146009029A002F009FEDA
:100A300013498860AFF2E540002301224B2100906A
:100A400026A002F0FEFD2849086001F0D9FD00BF94
:100A5000FEE708B500200090012003F0A2F96946E6
:100A60001A48006800F0ADFD009838B14FF0805092
:100A70001E490860BFF34F8FBFF36F8F08BD0000A2
:100A80000801002042746E5465737400DF0800088A
:100A900074696D6572436F666665653100000000BC
:100AA000D800002074696D6572436F6666656532B3
:100AB00000000000E800002074696D6572436F66F5
:100AC0006665653300000000F80000202C0000205F
:100AD00074696D6572427574746F6E0077616974C4
:100AE000427574746F6E00002800002004ED00E071
:100AF0001CB50446724951F82400012103F07EFC24
:100B0000704830F81400009001208DF80400002097
:100B10008DF8060001208DF8070002208DF80500F1
:100B2000694951F82400694603F0CAF91CBD6549BA
:100B300031F81010644A52F820201183704761493F
:100B400031F81010604A52F82020518370475E49F6
:100B500051F8201049695B4A32F8102051405A4A36
:100B600052F820205161704730B585B004460D46DB
:100B7000564951F82400012103F040FC012188036B
:100B800003F096FC00208DF810008DF813005048FB
:100B900030F8140003904F4951F8240003A903F0E2
:100BA0008FF9012D24D14C4A115D4C4A105D03F0A0
:100BB00076FD4B4830F81400019000208DF80800B5
:100BC00008208DF8090001208DF80A0001A803F023
:100BD00077F84448005D8DF800000F208DF8010083
:100BE0008DF8020001208DF80300684602F0EFFF47
:100BF00005B030BD10B50446354A32F81410354AF8
:100C000052F8240003F0BEF910BD7CB504460D4631
:100C1000354951F82410354A52F8242041EA02009F
:100C2000012103F0EBFB2CB9314951F824000121DB
:100C300003F02DFC2F4B13F814202F4B33F8141016
:100C40002E4B53F8240003F0C6F92D4B13F8142053
:100C50002C4B33F814102C4B53F8240003F0BBF941
:100C600000208DF8060001208DF8070002208DF885
:100C70000400264830F81400009002208DF805008A
:100C80001E4951F82400694603F01AF902208DF834
:100C900004001F4830F8140000901B4951F824004C
:100CA000694603F00DF91B4951F82400294603F069
:100CB00096FD184951F82400012103F018FE7CBD6F
:100CC000804D0008784D000830000020944D000849
:100CD000904D0008400000209B4D00089A4D0008F0
:100CE000984D00089C4D0008A44D0008A84D000830
:100CF000A04D0008B44D0008B04D00084C00002085
:100D0000B64D0008B24D000850000020AC4D000860
:100D1000AE4D000848000020704700BFFEE700BF4E
:100D2000FEE700BFFEE700BFFEE7704700F10801E5
:100D300041604FF0FF31816000F10801C160016145
:100D400000210160704700210161704742684A60DC
:100D500093688B60936859609160086103685B1CBD
:100D60000360704710B502460B685C1C0CB9106933
:100D700007E002F1080000E04068446824689C42F3
:100D8000FAD944684C604C68A160886041600A618F
:100D90001468641C146010BD01460A69D1E9013071
:100DA0009860D1E9010358605068884201D1886891
:100DB0005060002008611068401E10601068704785
:100DC00070B505460E462C4654B900BF502080F33E
:100DD0001188BFF34F8FBFF36F8F00BF00BFFEE7D7
:100DE00002F0BBFDD4E90F12206801FB0200606035
:100DF0000020A0632068A060E06B401E226C216888
:100E000000FB0210E060FF2084F8440084F84500F5
:100E10009EB9206908B9012000E00020A8B904F1BA
:100E2000100001F0B0FD80B14FF08050F84908602B
:100E3000BFF34F8FBFF36F8F07E004F11000FFF790
:100E400075FF04F12400FFF771FF02F0ADFD0120F2
:100E500070BD2DE9F04106460D4617469846069CA2
:100E60000DB9246000E02760E66325640121204677
:100E7000FFF7A6FF84F84C80BDE8F0812DE9F84328
:100E800005460E4690460DB1012000E0002050B905
:100E900000BF502080F31188BFF34F8FBFF36F8FD7
:100EA00000BF00BFFEE70EB9002701E005FB06F713
:100EB00007F1500002F007FE044644B104F1500966
:100EC00043464A46314628460094FFF7C2FF204673
:100ED000BDE8F88370B5044602F03FFD94F9455033
:100EE00010E0606A08B9012000E0002038B904F180
:100EF000240001F048FD18B101F041FE00E003E0DC
:100F0000681E45B2002DECDC00BFFF2084F84500D0
:100F100002F04AFD02F021FD94F9445010E02069EE
:100F200008B9012000E0002048B904F1100001F0E8
:100F30002AFD08B101F023FE681E45B200E001E081
:100F4000002DECDC00BFFF2084F8440002F02CFDF3
:100F500070BD70B5054602F000FDA86BE96B8842D4
:100F600001D1012400E0002402F01EFD204670BDE6
:100F70002DE9F04104460F4615464FF00008A66BD8
:100F8000206C40B9206860BB606801F068FE804654
:100F90000020606025E07DB93946226CA06803F02E
:100FA000E1FD216CA0680844A060D4E901108842EA
:100FB00017D32068A06014E03946226CE06803F083
:100FC000D1FD216CE068401AE0602168E068884249
:100FD00003D2216C6068401AE060022D01D106B195
:100FE000761E701CA0634046BDE8F0812DE9FF43EA
:100FF00083B0064688461D464FF00009344654B972
:1010000000BF502080F31188BFF34F8FBFF36F8F65
:1010100000BF00BFFEE7B8F1000F01D1206C08B996
:10102000012000E0002050B900BF502080F311885B
:10103000BFF34F8FBFF36F8F00BF00BFFEE7022DDE
:1010400002D1E06B012801D1012000E0002050B95D
:1010500000BF502080F31188BFF34F8FBFF36F8F15
:1010600000BF00BFFEE701F09CFD08B9059808B974
:10107000012000E0002050B900BF502080F311880B
:10108000BFF34F8FBFF36F8F00BF00BFFEE700BFFE
:1010900002F063FCA06BE16B884201D3022D28D1E2
:1010A0002A4641462046FFF763FF0746606A08B9B3
:1010B000012000E0002068B904F1240001F063FC85
:1010C00088B14FF0805052490860BFF34F8FBFF393
:1010D0006F8F08E03FB14FF080504D490860BFF37B
:1010E0004F8FBFF36F8F02F05FFC012007B0BDE8A8
:1010F000F083059818B902F057FC0020F6E7B9F123
:10110000000F04D101A801F0CBFC4FF0010902F05F
:101110004BFC00F04CFF02F020FC94F94400401C12
:1011200010B9002084F8440094F94500401C10B91F
:10113000002084F8450002F037FC05A901A801F061
:10114000DCFCF0B92046FFF704FFA0B104F1100069
:10115000059901F0AEFB2046FFF7BCFE00F079FEDA
:10116000002895D14FF0805029490860BFF34F8F78
:10117000BFF36F8F8CE72046FFF7ACFE00F069FEEF
:1011800086E72046FFF7A6FE00F063FE0020ADE7ED
:1011900010B504464CB1002060602060E060002380
:1011A0001A4619462046FFF721FF10BD2DE9F041F0
:1011B000044601260027224600210120FFF75EFE9B
:1011C00005462846FFF7E4FF2846BDE8F08170B5E4
:1011D00005462C4654B900BF502080F31188BFF358
:1011E0004F8FBFF36F8F00BF00BFFEE701F0D6FC4B
:1011F000616888420ED1E068401EE060E06828B96E
:1012000000231A4619462046FFF7F0FE012602E0A9
:1012100004ED00E00026304670BD70B5054602F0D2
:101220009CFBA86B08B9012400E0002402F0BCFB81
:10123000204670BD70B504460D46206C70B1216C1F
:10124000E0680844E0606168E068884201D3206893
:10125000E0602846226CE16803F084FC70BD2DE953
:10126000FF4782B005460E461F464FF0000A2C4647
:1012700054B900BF502080F31188BFF34F8FBFF3E4
:101280006F8F00BF00BFFEE70EB9206C08B90120C8
:1012900000E0002050B900BF502080F31188BFF358
:1012A0004F8FBFF36F8F00BF00BFFEE701F079FCE7
:1012B00008B9049808B9012000E0002050B900BF27
:1012C000502080F31188BFF34F8FBFF36F8F00BFA3
:1012D00000BFFEE700BF02F040FBD4F83890B9F140
:1012E000000F3DD0D4F80C8031462046FFF7A2FF16
:1012F000DFB9A9F10100A063206810B901F019FD60
:101300006060206908B9012000E0002010BB04F1F2
:10131000100001F038FBE8B14FF08050FE49086042
:10132000BFF34F8FBFF36F8F14E0C4F80C80606A77
:1013300008B9012000E0002060B904F1240001F0A8
:1013400022FB38B14FF08050F3490860BFF34F8F54
:10135000BFF36F8F02F028FB012006B0BDE8F087D5
:10136000049818B902F020FB0020F6E7BAF1000F4C
:1013700004D1684601F094FB4FF0010A02F014FB1F
:1013800000F015FE02F0E9FA94F94400401C10B98F
:10139000002084F8440094F94500401C10B9002056
:1013A00084F8450002F000FB04A9684601F0A5FBA3
:1013B00040BB2046FFF731FFF0B1206830B902F0A2
:1013C000CCFA606801F0F9FB02F0EEFA04F12400B7
:1013D000049901F06EFA2046FFF77CFD00F039FD1C
:1013E00000287FF478AF4FF08050CB490860BFF3FE
:1013F0004F8FBFF36F8F6EE72046FFF76BFD00F056
:1014000028FD68E72046FFF765FD00F022FD204635
:10141000FFF703FF0028EED000209EE72DE9F04102
:1014200006460F46344654B900BF502080F3118859
:10143000BFF34F8FBFF36F8F00BF00BFFEE701F018
:10144000ADFB6168884204D1E068401CE060012582
:101450000AE000233A4619462046FFF700FF0546FA
:1014600015B1E068401CE0602846BDE8F08170B529
:1014700005460E460DB1012000E0002050B900BF26
:10148000502080F31188BFF34F8FBFF36F8F00BFE1
:1014900000BFFEE7AE4201D8012000E0002050B9B5
:1014A00000BF502080F31188BFF34F8FBFF36F8FC1
:1014B00000BF00BFFEE7022200212846FFF7DEFC46
:1014C000044604B1A663204670BD2DE9F05F0746CF
:1014D0008A4690461E463C4654B900BF502080F3D1
:1014E0001188BFF34F8FBFF36F8F00BF00BFFEE7C0
:1014F000BAF1000F01D1206C08B9012000E00020F2
:1015000050B900BF502080F31188BFF34F8FBFF355
:101510006F8F00BF00BFFEE7022E02D1E06B0128F3
:1015200001D1012000E0002050B900BF502080F31D
:101530001188BFF34F8FBFF36F8F00BF00BFFEE76F
:1015400002F066FA00BF5021EFF3118081F3118899
:10155000BFF34F8FBFF36F8F00BF0546A06BE16BEA
:10156000884201D3022E23D194F945B03246514628
:101570002046FFF7FDFC0BF1010088B9606A08B94D
:10158000012000E0002080B904F1240001F0FBF903
:1015900058B1B8F1000F08D00120C8F8000004E0ED
:1015A0000BF1010040B284F845004FF0010901E061
:1015B0004FF0000900BF85F3118800BF4846BDE821
:1015C000F09F2DE9F04706460F46344654B900BF58
:1015D000502080F31188BFF34F8FBFF36F8F00BF90
:1015E00000BFFEE7206C08B9012000E0002050B9E0
:1015F00000BF502080F31188BFF34F8FBFF36F8F70
:1016000000BF00BFFEE7206808B9606808B9012084
:1016100000E0002050B900BF502080F31188BFF3D4
:101620004F8FBFF36F8F00BF00BFFEE702F0F0F9EE
:1016300000BF5021EFF3118081F31188BFF34F8F6A
:10164000BFF36F8F00BF0546D4F83890E06B484574
:101650001ED994F945A009F10100A0630AF1010027
:1016600070B9606A08B9012000E0002068B904F18F
:10167000240001F088F940B13FB10120386004E056
:101680000AF1010040B284F845004FF0010801E082
:101690004FF0000800BF85F3118800BF4046BDE849
:1016A000F0872DE9F05F064689461746344654B95F
:1016B00000BF502080F31188BFF34F8FBFF36F8FAF
:1016C00000BF00BFFEE7B9F1000F01D1206C08B9DF
:1016D000012000E0002050B900BF502080F31188A5
:1016E000BFF34F8FBFF36F8F00BF00BFFEE702F065
:1016F0008FF900BF5021EFF3118081F31188BFF300
:101700004F8FBFF36F8F00BF0546D4F838A0BAF1F2
:10171000000F26D002E0000004ED00E094F944B090
:1017200049462046FFF786FDAAF10100A0630BF1B0
:10173000010070B9206908B9012000E0002068B9F3
:1017400004F1100001F01FF940B13FB101203860F1
:1017500004E00BF1010040B284F844004FF00108AE
:1017600001E04FF0000800BF85F3118800BF40463C
:10177000BDE8F09F2DE9F04706468846344654B947
:1017800000BF502080F31188BFF34F8FBFF36F8FDE
:1017900000BF00BFFEE7B8F1000F01D1206C08B90F
:1017A000012000E0002050B900BF502080F31188D4
:1017B000BFF34F8FBFF36F8F00BF00BFFEE7206CFA
:1017C00008B1012000E0002050B900BF502080F394
:1017D0001188BFF34F8FBFF36F8F00BF00BFFEE7CD
:1017E00002F016F900BF5021EFF3118081F3118848
:1017F000BFF34F8FBFF36F8F00BF0546A06B48B19B
:10180000D4F80C9041462046FFF714FDC4F80C9024
:10181000012700E0002700BF85F3118800BF38468C
:10182000BDE8F08770B5044654B900BF502080F37E
:101830001188BFF34F8FBFF36F8F00BF00BFFEE76C
:1018400002F08BF8A56B02F0AFF8284670BD70B5BA
:101850000446254655B900BF502080F31188BFF3D8
:101860004F8FBFF36F8F00BF00BFFEE702F075F828
:10187000D5E90E10461A02F097F8304670BD0146C1
:1018800051B900BF502282F31188BFF34F8FBFF3CD
:101890006F8F00BF00BFFEE7886B704701460020D6
:1018A0000EE0524A02EBC00252688A4207D100227F
:1018B0004E4B43F8302003EBC0035A6002E0401C5B
:1018C0000828EED300BF704770B50446254655B9C9
:1018D00000BF502080F31188BFF34F8FBFF36F8F8D
:1018E00000BF00BFFEE72846FFF7D8FF284602F0FA
:1018F0003CF970BD0146886C7047816470470146B1
:1019000091F84C007047014651B900BF502282F354
:101910001188BFF34F8FBFF36F8F00BF00BFFEE78B
:101920008A6B0AB9012000E000207047014651B9D6
:1019300000BF502282F31188BFF34F8FBFF36F8F28
:1019400000BF00BFFEE78A6BCB6B9A4201D101203A
:1019500000E000207047024600200BE0234B53F8C4
:10196000303033B9214B43F8301003EBC0035A60D9
:1019700002E0401C0828F1D300BF70470246002057
:1019800000210AE0194B03EBC1035B68934203D1CA
:10199000164B53F8310002E0491C0829F2D300BF6E
:1019A00070472DE9F04105460E4617462C4601F0DA
:1019B000D4FF94F94400401C10B9002084F844007E
:1019C00094F94500401C10B9002084F8450001F04E
:1019D000EBFFA06B28B93A46314604F1240000F031
:1019E000B4FF2046FFF776FABDE8F0811801002029
:1019F00010B5002407E004EB8401FC4A02EB8100EF
:101A0000FFF794F9641C052CF5D3F948FFF78EF91C
:101A1000F848FFF78BF9F848FFF788F9F748FFF720
:101A200085F9F748FFF782F9F148F6490860F1486F
:101A3000F549086010BD10B5044601F08EFFF3486B
:101A40000068401CF1490860F148006840B9F0485E
:101A500004600846006801280DD1FFF7C9FF0AE0BD
:101A6000EC48006838B9EA480068C06AE16A884210
:101A700001D8E7480460E8480068401CE64908606F
:101A800008460068206494F82C1001208840E3493F
:101A900009680843E1490860E16A01EB8101D34A22
:101AA00002EB8100211DFFF751F901F07DFFD948BC
:101AB000006868B1D6480068C06AE16A884207D207
:101AC0004FF08050D6490860BFF34F8FBFF36F8F40
:101AD00010BD2DE9F05F82460F4690469B460A9E58
:101AE0000C9C4FEA8801A522206B03F080F8A8F136
:101AF0000100216B01EB800929F0070909F00700BB
:101B000008B9012000E0002050B900BF502080F348
:101B10001188BFF34F8FBFF36F8F00BF00BFFEE789
:101B2000002507E0795D04F134004155785D00B986
:101B300002E06D1C0A2DF5D300BF00213D200155A8
:101B4000052E00D30426E662A6640020E064201D72
:101B5000FFF7F9F804F11800FFF7F5F82461C6F172
:101B60000500A06164620020206584F854005A4694
:101B70005146484601F02CFE20600B9808B10B98A6
:101B80000460BDE8F09F2DE9FF4F85B0804689468F
:101B90001746DDE912ABB80001F095FF064656B1D5
:101BA000582001F090FF04460CB1266304E0304653
:101BB00001F0DBFF00E000247CB10020CDE900ABA8
:101BC000CDE902403A4649464046089BFFF781FF6F
:101BD0002046FFF730FF012501E04FF0FF35284692
:101BE00009B0BDE8F08F87490968096809B9012182
:101BF00000E0002121B14FF0FF318A4A116006E078
:101C000080490968C968C868864A41681160704798
:101C100010B50446206B01F0A8FF204601F0A5FF97
:101C200010BD70B5054601F098FE15B978480068FA
:101C300000E028460446201DFFF7AEF878B9E06AB8
:101C400000EB8000694951F8200040B994F82C104D
:101C50000120884071490968814370480160A06A89
:101C600018B104F11800FFF797F86B480068401CA2
:101C70006949086066480068844209D1211D5F48AF
:101C8000FFF764F868480068401C6749086009E08D
:101C90005E480068401E5D4908602046FFF7B8FFB7
:101CA000FFF7A1FF01F080FE5A480068E8B15848EC
:101CB0000068844219D15D48006808B9012000E03D
:101CC000002050B900BF502080F31188BFF34F8F20
:101CD000BFF36F8F00BF00BFFEE74FF08050504949
:101CE0000860BFF34F8FBFF36F8F70BD2DE9F041D8
:101CF0004FF000084D480068002876D14C48006835
:101D0000451C4B48056015BB3E480068006808B993
:101D1000012000E0002050B900BF502080F311885E
:101D2000BFF34F8FBFF36F8F00BF00BFFEE7354893
:101D300007683548006833490860334807603D4804
:101D40000068401C3B490860FFF74DFF00BF354865
:101D5000006885423CD300BF2A480068006808B983
:101D6000012000E0002020B14FF0FF302D49086035
:101D70002DE024480068C068C4686668B54202D295
:101D80002848066023E0201DFFF706F8A06A18B176
:101D900004F11800FFF700F894F82C100120884097
:101DA0001E49096808431D490860E16A01EB810189
:101DB0000E4A02EB8100211DFEF7C8FF1449E06ABC
:101DC0000968C96A8842C7D34FF00108C4E700BF59
:101DD0000F480068C06A00EB8000044951F82000F9
:101DE000012801D94FF001082BE025E0580100201F
:101DF000BC010020D0010020E4010020F8010020F7
:101E00000C020020580000205C000020640000202C
:101E10005400002070000020800000206C00002092
:101E200004ED00E084000020600000208C00002011
:101E3000680000207C000020FE480068401CFD492E
:101E40000860FD48006808B14FF001084046BDE851
:101E5000F08170B500240026F848006850B900BF32
:101E6000502080F31188BFF34F8FBFF36F8F00BFF7
:101E700000BFFEE701F071FDF0480068401EEF4929
:101E800008600846006800284FD1ED480068002827
:101E90004BD024E0EB48C068C46804F11800FEF79A
:101EA0007BFF201DFEF778FF94F82C10012088405E
:101EB000E54909680843E4490860E16A01EB8101EA
:101EC000E24A02EB8100211DFEF740FFE049E06A93
:101ED0000968C96A884202D30120D7490860D948F5
:101EE000006808B9012000E000200028D2D00CB121
:101EF000FFF779FECF48056865B100BFFFF7F6FE32
:101F000010B10120CC4908606D1E002DF6D10020D3
:101F1000C8490860C848006838B101263007CD4973
:101F20000860BFF34F8FBFF36F8F01F03DFD304668
:101F300070BD2DE9F04105460E46C7480768C44804
:101F40000068001DFEF728FF50B9C148006890F8EE
:101F50002C1001208840BC4909688143BA480160BF
:101F6000681C38B936B1BA480168091DBB48FEF78C
:101F7000EDFE1AE07C19B64800684460BC4207D206
:101F8000B3480168091DB6480068FEF7EBFE0CE097
:101F9000AF480168091DB3480068FEF7E3FEB24888
:101FA0000068844201D2B0480460BDE8F081A348D3
:101FB0000068401CA149086070472DE9F0470446BD
:101FC0000F464FF0000954B900BF502080F311882C
:101FD000BFF34F8FBFF36F8F00BF00BFFEE70FB19E
:101FE000012000E0002050B900BF502080F311888C
:101FF000BFF34F8FBFF36F8F00BF00BFFEE78F4867
:10200000006808B9012000E0002050B900BF50204E
:1020100080F31188BFF34F8FBFF36F8F00BF00BFF6
:10202000FEE7FFF7C4FF8C4806682068C5192068E2
:10203000B04207D92068A8420BD9B54209D94FF060
:10204000010906E02068A84201D8B54201D94FF045
:1020500001092560B9F1000F03D0A81B0021FFF78B
:1020600068FFFFF7F6FE8046B8F1000F07D14FF08A
:10207000805078490860BFF34F8FBFF36F8FBDE882
:10208000F08770B504460025D4B16C48006808B9E3
:10209000012000E0002050B900BF502080F31188DB
:1020A000BFF34F8FBFF36F8F00BF00BFFEE7FFF797
:1020B0007EFF00212046FFF73CFFFFF7CAFE0546E2
:1020C0003DB94FF0805063490860BFF34F8FBFF3B5
:1020D0006F8F70BD2DE9F04107463E4656B900BFEF
:1020E000502080F31188BFF34F8FBFF36F8F00BF75
:1020F00000BFFEE756480068864201D100241EE07A
:1021000001F02BFC756901F04FFC564800688542D0
:1021100003D053480068854201D102240FE04F48A4
:10212000854205D1B06A08B9032408E0022406E01C
:102130004E48854200D00DB9042400E00124204619
:10214000BDE8F08170B5044601F007FC14B94048C1
:10215000006800E020460646F56A01F025FC2846A6
:1021600070BD2DE9F041054601F052FC00BF502141
:10217000EFF3118081F31188BFF34F8FBFF36F8F9F
:1021800000BF044615B93248006800E028460746FB
:10219000FE6A00BF84F3118800BF3046BDE8F081BD
:1021A0002DE9F04780460D464FF00009052D01D27C
:1021B000012000E0002050B900BF502080F31188BA
:1021C000BFF34F8FBFF36F8F00BF00BFFEE7052D3A
:1021D00000D3042501F0C1FBB8F1000F02D11C4867
:1021E000006800E040460446A66CAE4275D0B54299
:1021F0000BD91748006884420DD015480068C06AA2
:10220000A84208D84FF0010905E01148006884424F
:1022100001D14FF00109E76AE16AA06C884200D160
:10222000E562A564A06900F0004010B9C5F10500A1
:10223000A0611DE074000020780000208C000020C8
:1022400064000020E40100206C0000205801002000
:102250005400002004ED00E0680000200C02002083
:102260005C0000205800002084000020F8010020BD
:1022700007EB8701F74A02EB81016069884201D1CF
:10228000012000E00020E0B1201DFEF785FD30B9FF
:102290000120B840F04909688143EF48016094F893
:1022A0002C1001208840EC4909680843EA4908607D
:1022B000E16A01EB8101E74A02EB8100211DFEF793
:1022C00045FDB9F1000F07D04FF08050E349086099
:1022D000BFF34F8FBFF36F8F00BF01F065FBBDE809
:1022E000F087DF48006818B10120DE49086032E05D
:1022F0000020DC490860D8480068B0FA80F0C0F1DE
:102300001F0101EB8100D34A52F8200008B10120DF
:1023100000E0002050B900BF502080F31188BFF3C7
:102320004F8FBFF36F8F00BF00BFFEE701EB81024D
:10233000C84B03EB820042685268426000F1080219
:102340004368934202D14268526842604268D26850
:10235000C54B1A6000BF704770B5054601F0FDFA25
:1023600015B9C148006800E028460446201DFEF764
:1023700013FD78B9E06A00EB8000B64951F82000FF
:1023800040B994F82C1001208840B3490968814372
:10239000B1480160A06A18B104F11800FEF7FCFC16
:1023A000211DB248FEF7D2FC01F0FEFAB0480068E9
:1023B00028B101F0D2FAFFF716FC01F0F5FAAA48AD
:1023C0000068844229D1AA480068D0B1A4480068B6
:1023D00008B9012000E0002050B900BF502080F370
:1023E0001188BFF34F8FBFF36F8F00BF00BFFEE7B1
:1023F0004FF0805099490860BFF34F8FBFF36F8F44
:102400000BE09A4800689B490968884203D1002084
:102410009549086001E0FFF764FF70BD10B5024602
:102420000020114652B900BF502383F31188BFF337
:102430004F8FBFF36F8F00BF00BFFEE78B4C4B6920
:10244000A34201D1012300E0002373B18A4C8B6ABF
:10245000A34201D1012300E0002333B98B6A0BB9F9
:10246000012300E0002303B1012010BD70B5054633
:102470002C4655B900BF502080F31188BFF34F8F11
:10248000BFF36F8F00BF00BFFEE774B376480068EC
:1024900084422AD001F061FA2046FFF7BFFF10B353
:1024A000201DFEF779FC94F82C10012088406A4921
:1024B0000968084368490860E16A01EB8101654ADF
:1024C00002EB8100211DFEF741FC6749E06A0968C3
:1024D000C96A884207D34FF0805060490860BFF353
:1024E0004F8FBFF36F8F01F05FFA70BD2DE9F041A0
:1024F00006460027344656B900BF502080F31188A5
:10250000BFF34F8FBFF36F8F00BF00BFFEE701F037
:102510007FFA00BF5021EFF3118081F31188BFF3E0
:102520004F8FBFF36F8F00BF05462046FFF776FF42
:1025300020B34B480068E0B94B49E06A0968C96AB2
:10254000884200D30127201DFEF726FC94F82C10AA
:10255000012088404049096808433F490860E16A12
:1025600001EB81013B4A02EB8100211DFEF7EEFBEE
:1025700004E004F118014048FEF7E8FB00BF85F3D2
:10258000118800BF3846BDE8F08170B523E0FFF741
:102590000EFD3A48006808B9012000E00020054619
:1025A000FFF757FCBDB901F0D8F93448C068C468DA
:1025B000201DFEF7F1FB2F480068401E2D490860E2
:1025C0002F480068401E2E49086001F0EDF92046B2
:1025D000FFF71EFB00BF2A4800680028D7D170BD56
:1025E00000BFFFF7D2FF1B4800680128F9D94FF060
:1025F00080501A490860BFF34F8FBFF36F8FF0E729
:102600001CB5204800210B468222CDE900101EA1F6
:102610001F48FFF7B8FA0446012C02D100F0AEFFC4
:102620000446012C3AD100BF502080F31188BFF33B
:102630004F8FBFF36F8F00BF4FF0FF301549086019
:1026400001200B49086000201349086001F0E0F800
:1026500035E00000580100206C00002004ED00E08F
:102660008C00002078000020540000200C02002084
:102670007000002064000020E4010020F801002028
:10268000600000208800002049444C450000000004
:10269000E12500088400002068000020601C08B1CB
:1026A000012000E0002050B900BF502080F31188C5
:1026B000BFF34F8FBFF36F8F00BF00BFFEE71CBD9E
:1026C00010B500BF502080F31188BFF34F8FBFF3C8
:1026D0006F8F00BF0020F849086001F029F910BD94
:1026E000F6490868704770B501F092F90025F34883
:1026F0000468204670BDF24800687047014611B971
:10270000F048006800E00846024652B900BF502079
:1027100080F31188BFF34F8FBFF36F8F00BF00BFEF
:10272000FEE702F1340070470246002101E0521C2E
:10273000491C1078A528FAD0890888B270472DE97D
:10274000F04107460C4690461E4617B9DD48006822
:1027500000E038460546256005F134006060E86A0F
:102760002061286BE061286CA060207B032807D1E2
:10277000FFF71DFCA86A08B102202073FFF769FB70
:10278000A86C60610020A061052E01D0267303E0D3
:102790003846FFF79FFC2073B8F1000F04D0286B78
:1027A000FFF7C2FF208401E000202084BDE8F08113
:1027B0002DE9F04707460C4690460026206848B3AE
:1027C000204641684968416000F1080142688A4238
:1027D00002D14168496841604168D1F80C9000BF5E
:1027E000204641684968416000F1080142688A4218
:1027F00002D14168496841604168CD6806EBC60076
:1028000007EB8001434601222846FFF798FF761C1C
:102810004D45E5D13046BDE8F0872DE9F04105464C
:102820008846164600240527FFF7C1FBA448006828
:10283000804539D300BF7F1E07EB8702A24B03EB15
:10284000820104EBC40205EB82000122FFF7B0FF16
:102850000444002FEFD104EBC40105EB81000222F8
:102860009A490968FFF7A4FF044404EBC40105EB8F
:102870008100022296490968FFF79AFF044404EB9D
:10288000C40105EB810004229249FFF791FF044443
:1028900004EBC40105EB810003228F49FFF788FF99
:1028A00004440EB100203060FFF7D3FA2046BDE8A3
:1028B000F08170B504460D4654B900BF502080F336
:1028C0001188BFF34F8FBFF36F8F00BF00BFFEE7CC
:1028D0007C48016818312046FEF744FA0121284659
:1028E000FFF727FB70BD70B504460D46164654B978
:1028F00000BF502080F31188BFF34F8FBFF36F8F5D
:1029000000BF00BFFEE77548006808B1012000E085
:10291000002050B900BF502080F31188BFF34F8FC3
:10292000BFF36F8F00BF00BFFEE745F00040654971
:10293000096888616348016818312046FEF706FA85
:1029400001213046FFF7F5FA70BD70B505460E4619
:10295000144655B900BF502080F31188BFF34F8F44
:10296000BFF36F8F00BF00BFFEE756480168183104
:102970002846FEF7EBF90CB14FF0FF362146304602
:10298000FFF7D7FA70BD70B50646F068C46854B951
:1029900000BF502080F31188BFF34F8FBFF36F8FBC
:1029A00000BF00BFFEE704F11800FEF7F5F94B4841
:1029B0000068A8B9201DFEF7EFF994F82C1001204B
:1029C000884047490968084345490860E16A01EBC6
:1029D00081013D4A02EB8100211DFEF7B7F904E0B9
:1029E00004F118013F48FEF7B1F93649E06A096879
:1029F000C96A884204D9012501203B49086000E0EA
:102A00000025284670BD2DE9F04105460F463348A4
:102A1000006808B1012000E0002050B900BF50203C
:102A200080F31188BFF34F8FBFF36F8F00BF00BFDC
:102A3000FEE747F000402860EC6854B900BF502022
:102A400080F31188BFF34F8FBFF36F8F00BF00BFBC
:102A5000FEE72846FEF7A0F9201DFEF79DF994F841
:102A60002C10012088401E49096808431C49086051
:102A7000E16A01EB8101144A02EB8100211DFEF79E
:102A800065F91049E06A0968C96A884204D90126D3
:102A900001201549086000E000263046BDE8F081BD
:102AA00020BB00BF502181F31188BFF34F8FBFF3CC
:102AB0006F8F00BF00BFFEE770000020680000209D
:102AC000640000205400002058010020580000201D
:102AD0005C000020F80100200C0200208C00002087
:102AE0006C000020E401002078000020FE49096805
:102AF0000160FE4909684160704770B504460D46A3
:102B000054B900BF502080F31188BFF34F8FBFF33B
:102B10006F8F00BF00BFFEE755B900BF502080F3A4
:102B20001188BFF34F8FBFF36F8F00BF00BFFEE769
:102B300000F013FFED4803682868401C08B9002620
:102B400019E0E94920680968884204D06068984221
:102B500001D801260FE06068181A2968884209D256
:102B600028686168591A401A28602046FFF798FFC4
:102B7000002600E0012600F017FF304670BD01205E
:102B8000DB4908607047014611B10A46506C00E00D
:102B90000020704708B1024651647047D549086863
:102BA0007047D549096809B9012005E0D34909688A
:102BB00009B9022000E00020704770B505462C4698
:102BC000002D4BD0CB49E06A0968C96A884245D2DA
:102BD000A06900F0004028B9C6480068C06AC0F18A
:102BE0000500A061E16A01EB8101C54A02EB8101A8
:102BF0006069884201D1012000E0002050B3201D0F
:102C0000FEF7CAF878B9E06A00EB8000BC4951F8D9
:102C1000200040B994F82C1001208840B949096877
:102C20008143B8480160B3480068C06AE06294F824
:102C30002C1001208840B34909680843B149086055
:102C4000E16A01EB8101AE4A02EB8100211DFEF732
:102C50007DF803E0A7480068C06AE06270BD70B507
:102C600005462C460026002D55D0A2480068844217
:102C700001D1012000E0002050B900BF502080F3B6
:102C80001188BFF34F8FBFF36F8F00BF00BFFEE708
:102C9000E06C50B900BF502080F31188BFF34F8F14
:102CA000BFF36F8F00BF00BFFEE7E06C401EE06423
:102CB000A16CE06A88422ED0E06C60BB201DFEF75C
:102CC0006BF878B9E06A00EB80008D4951F820007C
:102CD00040B994F82C10012088408A490968814342
:102CE00088480160A06CE062E06AC0F10500A06164
:102CF00094F82C10012088408249096808438149D2
:102D00000860E16A01EB81017D4A02EB8100211D2F
:102D1000FEF71CF80126304670BD764909688869BF
:102D200074490968C96AC1F10501724A1268916162
:102D300070477048006830B16E49096801F14C0075
:102D4000C96C491C01606B480068704770B5064645
:102D50000D4600F002FE67480068006D88B901204A
:102D60006449096881F854005DB101212846FFF7E4
:102D7000E0F84FF0805064490860BFF34F8FBFF315
:102D80006F8F00F011FE00F0E8FD5A480068046DF6
:102D90004CB126B1002057490968086503E0601E60
:102DA00054490968086500205249096881F85400AF
:102DB00000F0FAFD204670BD2DE9F0410746884637
:102DC00014461D4600F0C9FD4A48006890F85400BA
:102DD000022818D04749096801F15000096DB9432C
:102DE000016001204349096881F854005DB1012167
:102DF0002846FFF79EF84FF0805043490860BFF324
:102E00004F8FBFF36F8F00F0CFFD00F0A6FD1CB118
:102E100038480068006D20603648006890F854001B
:102E2000012801D1002608E03249096801F150006B
:102E3000096D21EA08010160012600202D49096879
:102E400081F8540000F0B0FD3046BDE8F0812DE976
:102E5000F04706460D46174698464FF0010A56B908
:102E600000BF502080F31188BFF34F8FBFF36F8FE7
:102E700000BF00BFFEE7344600F06FFDB8F1000F61
:102E800002D0206DC8F8000094F85490022084F815
:102E90005400052F17D2DFE807F01503070B0D00CC
:102EA000206D284320650EE0206D401C20650AE05F
:102EB000256508E0B9F1020F01D0256501E04FF06A
:102EC000000A00E000BF00BFB9F1010F46D1201D8C
:102ED000FDF762FF94F82C10012088400949096829
:102EE00008430849086011E07C00002068000020C9
:102EF0007800002054000020700000208C0000208A
:102F0000580100206C00002004ED00E0E16A01EBB4
:102F10008101A14A02EB8100211DFDF717FFA06A84
:102F200008B9012000E0002050B900BF502080F314
:102F30001188BFF34F8FBFF36F8F00BF00BFFEE755
:102F40009649E06A0968C96A884207D94FF08050FB
:102F500093490860BFF34F8FBFF36F8F00F024FDDC
:102F60005046BDE8F0872DE9F84F07460E469046DB
:102F70009946DDF828B00120009057B900BF5020D5
:102F800080F31188BFF34F8FBFF36F8F00BF00BF77
:102F9000FEE700F03DFD3C4600BF5021EFF31180FD
:102FA00081F31188BFF34F8FBFF36F8F00BF0546CA
:102FB000B9F1000F02D0206DC9F8000094F854A0B8
:102FC000022084F85400B8F1050F17D2DFE808F0AA
:102FD0001503070B0D00206D304320650EE0206DBA
:102FE000401C20650AE0266508E0BAF1020F01D016
:102FF000266501E00020009000E000BF00BFBAF1AC
:10300000010F3ED1A06A08B9012000E0002050B9AC
:1030100000BF502080F31188BFF34F8FBFF36F8F35
:1030200000BF00BFFEE75F480068A8B9201DFDF79C
:10303000B3FE94F82C10012088405B4909680843CE
:1030400059490860E16A01EB8101534A02EB8100B2
:10305000211DFDF77BFE04E004F118015348FDF744
:1030600075FE4E49E06A0968C96A884209D9BBF110
:10307000000F03D00120CBF8000002E001204C49F2
:10308000086000BF85F3118800BF0098BDE8F88F85
:103090002DE9F04105460F4655B900BF502080F399
:1030A0001188BFF34F8FBFF36F8F00BF00BFFEE7E4
:1030B00000F0AEFC2C4600BF5021EFF3118081F3ED
:1030C0001188BFF34F8FBFF36F8F00BF064694F890
:1030D0005480022084F85400206D401C2065B8F113
:1030E000010F3BD1A06A08B9012000E0002050B9CF
:1030F00000BF502080F31188BFF34F8FBFF36F8F55
:1031000000BF00BFFEE727480068A8B9201DFDF7F3
:1031100043FE94F82C100120884023490968084395
:1031200021490860E16A01EB81011B4A02EB810041
:10313000211DFDF70BFE04E004F118011B48FDF70B
:1031400005FE1649E06A0968C96A884206D917B1BE
:103150000120386002E001201549086000BF86F3B5
:10316000118800BFBDE8F08170B5054615B90B4860
:10317000006800E02846064600F0EFFB96F8540091
:10318000022804D1002086F85400012400E0002425
:1031900000F00AFC204670BD5801002054000020B9
:1031A00004ED00E08C0000206C000020E401002011
:1031B000780000202DE9F04104460D4616461F46D2
:1031C0004FF0000865602461B5420CD8F01BA1697E
:1031D000884202D34FF0010811E0211DF748006832
:1031E000FDF7C0FD0BE0BE4204D2BD4202D34FF05A
:1031F000010804E0211DF2480068FDF7B3FD4046D8
:10320000BDE8F0812DE9FE4304460D4616461F46F3
:10321000DDF828804FF0000954B900BF502080F33A
:103220001188BFF34F8FBFF36F8F00BF00BFFEE762
:10323000E448006810B3009501960294062D15DA53
:10324000FFF7AFFC022808D1002342466946DD485B
:103250000068FDF7CBFE814610E000231A46694660
:10326000D8480068FDF7C2FE814607E000233A46D1
:103270006946D4480068FEF728F981464846BDE80B
:10328000FE832DE9F84332E0CD480068C068056848
:10329000CB480068C068C468201DFDF77DFD20464E
:1032A000616A8847E069012821D1A0694619AE42C8
:1032B00007D966602461211DC1480068FDF752FDF1
:1032C00015E0002003462A46014600902046FFF7FD
:1032D00099FF074657B900BF502080F31188BFF30C
:1032E0004F8FBFF36F8F00BF00BFFEE700BFB44832
:1032F0000068006808B9012000E000200028C3D061
:10330000AF48D0F80080AD480068AD490860AB48D0
:10331000C0F80080BDE8F88370B50446FFF7E0F917
:103320000546A9480068854204D2FFF7AAFF01209C
:10333000206001E000202060A3480560284670BDA1
:1033400070B586B06AE00398002867DB059C606969
:1033500008B9012000E0002010B9201DFDF71CFD78
:1033600002A8FFF7D9FF054603980A2854D2DFE8E0
:1033700000F009050731334F0608323400BF00BFA3
:1033800000BF00BF0498A269811803462A46204660
:10339000FFF710FFE8B12046616A8847E06901281D
:1033A00017D1002000900498A16942180023194603
:1033B0002046FFF727FF064656B900BF502080F38E
:1033C0001188BFF34F8FBFF36F8F00BF00BFFEE7C1
:1033D00000BF22E000BF20E000BF0498A061A06908
:1033E00008B1012000E0002050B900BF502080F358
:1033F0001188BFF34F8FBFF36F8F00BF00BFFEE791
:10340000A06941192B462A462046FFF7D3FE04E067
:10341000204600F0AAFB00E000BF00BF00231A46D0
:1034200003A968480068FDF71AFF00288BD106B091
:1034300070BDF8B505460F4661480068C068C468AD
:10344000201DFDF7A9FCE06901281DD1A0694119E3
:103450002B463A462046FFF7ADFEA8B100200346B2
:103460002A46014600902046FFF7CCFE064656B994
:1034700000BF502080F31188BFF34F8FBFF36F8FD1
:1034800000BF00BFFEE700BF2046616A8847F8BD65
:10349000F8B505460C46FEF78AFD6846FFF73CFF87
:1034A0000646009820BB44B9B54206D8FEF7D1FCC9
:1034B00031462846FFF7BDFF1CE03CB13F4800689D
:1034C000006808B9012000E000200446A91B22463C
:1034D0003C480068FEF765FAFEF7BBFC50B94FF0B8
:1034E00080503A490860BFF34F8FBFF36F8F01E000
:1034F000FEF7AFFCF8BD0146314A126812680AB9FE
:10350000012200E000220A600A6822B92C4A1268EF
:10351000D268106800E00020704708B500BF684618
:10352000FFF7E9FF044620460099FFF7B1FFFFF7D8
:1035300007FFF4E710B500F010FA22480068D0B990
:103540002348FDF7F3FB2348FDF7F0FB20481C4917
:10355000086020481949086000220C210A20FDF764
:103560008DFC184908600846006820B11AA115486A
:103570000068FEF7F0F900F017FA10BD1CB5002442
:10358000FFF7D8FF0F48006858B115480221002303
:103590004FF48272CDE9001012A11448FEF7F3FA3D
:1035A000044654B900BF502080F31188BFF34F8FF9
:1035B000BFF36F8F00BF00BFFEE719E0940000204B
:1035C0009000002098000020A000002004ED00E002
:1035D0002002002034020020546D725100000000CF
:1035E0009C000020546D7220537663001B35000848
:1035F00020461CBD2DE9F04706460D461746984665
:10360000DDE908940DB1012000E0002050B900BFB1
:10361000502080F31188BFF34F8FBFF36F8F00BF2F
:1036200000BFFEE75CB1FFF785FF2660A561E7619B
:10363000C4F82080C4F82490201DFDF784FBBDE869
:10364000F0872DE9FC4705460E4617469846DDF8FB
:1036500028902C2000F037FA04463CB143463A4605
:1036600031462846CDE90094FFF7C4FF2046BDE867
:10367000FC874748006808B1012000E0002050B9ED
:1036800000BF502080F31188BFF34F8FBFF36F8FBF
:1036900000BF00BFFEE73E480068704701460A468B
:1036A00051B900BF502080F31188BFF34F8FBFF393
:1036B0006F8F00BF00BFFEE79069704710B50146ED
:1036C0000A4651B900BF502383F31188BFF34F8FCF
:1036D000BFF36F8F00BF00BFFEE7506810BD01460B
:1036E0000A4651B900BF502080F31188BFF34F8FB5
:1036F000BFF36F8F00BF00BFFEE71068704770B563
:103700000446264654B900BF502080F31188BFF309
:103710004F8FBFF36F8F00BF00BFFEE700F01DF9B2
:10372000706908B9012000E0002080F0010500F078
:103730003BF9284670BD70B50446254654B900BF14
:10374000502080F31188BFF34F8FBFF36F8F00BFFE
:1037500000BFFEE700F001F92E6A00F025F93046BF
:1037600070BD70B504460D46264654B900BF5020C2
:1037700080F31188BFF34F8FBFF36F8F00BF00BF7F
:10378000FEE700F0EAF8356200F00EF970BD0000C7
:103790009C000020B9480068401C08B9012000E0E6
:1037A000002050B900BF502080F31188BFF34F8F25
:1037B000BFF36F8F00BF00BFFEE700BF502080F354
:1037C0001188BFF34F8FBFF36F8F00BF00BFFEE7BD
:1037D000001F4FF080730360001F21F0010303609E
:1037E000001FA74B036014380260001F6FF0020334
:1037F000036020387047A34800684FF47A71B0FB2B
:10380000F1F0401E4FF0E021486107200861704749
:103810001CB59D4800689D49884201D0012000E008
:10382000002050B900BF502080F31188BFF34F8FA4
:10383000BFF36F8F00BF00BFFEE793480068934956
:10384000491E884201D0012000E0002050B900BF8D
:10385000502080F31188BFF34F8FBFF36F8F00BFED
:1038600000BFFEE78A49084600780190FF200A461B
:1038700010700846007800909DF8000000F0F000FD
:103880009DF80020904201D1012000E0002050B9B5
:1038900000BF502080F31188BFF34F8FBFF36F8FAD
:1038A00000BF00BFFEE79DF8000000F05000794A1D
:1038B00010700720784A106009E077480068401EC1
:1038C000754A10609DF800004006000E00909DF8BB
:1038D000000000F080008028EFD06F4800680002F0
:1038E0006D4A10601046008800F4E0601060684A7D
:1038F0000198107064482030006840F470006249FC
:10390000203108600846006840F070400860FFF70A
:1039100072FF002059490860FCF7A6FC5F48006868
:1039200040F040405D490860FCF78EFC00201CBD63
:1039300052480068B0F57A7F01D1012000E00020F4
:1039400050B900BF502080F31188BFF34F8FBFF3F1
:103950006F8F00BF00BFFEE7704700BF502080F3AD
:103960001188BFF34F8FBFF36F8F00BF43480068CC
:10397000401C4249086008460068012813D14248AB
:10398000001D0068C0B208B9012000E0002050B955
:1039900000BF502080F31188BFF34F8FBFF36F8FAC
:1039A00000BF00BFFEE770473448006850B900BF51
:1039B000502080F31188BFF34F8FBFF36F8F00BF8C
:1039C00000BFFEE72D480068401E2C4908600846ED
:1039D000006820B9002080F3118800BF00BF704745
:1039E00010B500BF502080F31188BFF34F8FBFF395
:1039F0006F8F00BFFEF77AF920B14FF08050224957
:103A0000091D086000BF002080F3118800BF10BDB1
:103A100070B5FCF761FC0446102C16D304F1E020CD
:103A200090F8F0531B480078854201DB012000E04C
:103A3000002050B900BF502080F31188BFF34F8F92
:103A4000BFF36F8F00BF00BFFEE70F480C30006868
:103A500000F4E06010490968884201D8012000E0C4
:103A6000002050B900BF502080F31188BFF34F8F62
:103A7000BFF36F8F00BF00BFFEE770BDA400002042
:103A8000953700080000002000ED00E071C20F41F2
:103A900000E400E0A8000020AC00002034EF00E0CB
:103AA000424A22F00700424A10600022404B5A600E
:103AB000404A414B5A6000221A6001463D4A4A6022
:103AC0001A460A6070472DE9F04104464FF000089D
:103AD000FEF76DFA3948006820B9FFF7E1FF0120D1
:103AE0003649086044B1083404F0070020B104F0FE
:103AF0000700C0F108000444002C31D02D48844256
:103B00002ED22B4F3846056801E02F462D68686895
:103B1000A04202D228680028F7D1274885421FD04A
:103B2000386800F10808286838606868001B1028A9
:103B300010D92E196868001B70606C6071681C4891
:103B400000E00068026852688A42FAD30268326074
:103B5000066000BF1A4968680968081A18490860B1
:103B6000FEF777F94046BDE8F08170B50646354668
:103B7000B6B1083D2C46FEF71AFA61680C4800E021
:103B80000068026852688A42FAD3026822600460C0
:103B90000B4960680968084409490860FEF759F94B
:103BA00070BD074800687047704700005002002051
:103BB000B0000020F82B0100B8000020C400002055
:103BC000C000002032490143324A1160704770B58D
:103BD000002100230F22C4781CB32E4C246804F467
:103BE000E064C4F5E064C4F30721C1F10404E3B266
:103BF0000A4144789C40E1B28478144021430C0788
:103C0000210E254C05786155047804F01F05012428
:103C1000AC4005786D11AD0005F1E025C5F8004117
:103C200009E0047804F01F050124AC401B4D067820
:103C3000761145F8264070BD194A0A400243154BDB
:103C40001B1F1A60704739B1124A121D12680243D5
:103C5000104B1B1D1A6006E00E4A121D12688243AB
:103C60000C4B1B1D1A607047042808D14FF0E0214F
:103C7000096941F004014FF0E022116107E04FF0C3
:103C8000E021096921F004014FF0E0221161704741
:103C90000000FA050CED00E000E400E080E100E047
:103CA00080FFFF1F002041490860091D0860091DB1
:103CB0000860091D08603E483C491431086070479F
:103CC00000213A498279002A3AD00A4612680368EC
:103CD0009A430B461A600A1D126803689A430B1D2B
:103CE0001A60027911440A6803681A430A602F4A6D
:103CF0000832126803689A432C4B08331A601A1D65
:103D0000126803689A43294B0C331A604279102ACF
:103D10000ED11A1F126803681A43244B08331A6025
:103D20001A1D126803681A43204B0C331A600DE009
:103D30001E49427911440A6803681A430A6005E083
:103D4000027911440A6803689A430A6070470021A7
:103D5000016001710C21417100218171704713498B
:103D6000103109680143114A103211607047014651
:103D700000200E4A143212680A400AB1012000E005
:103D8000002070470949143108607047014600203F
:103D9000064A143212680A400AB1012000E00020ED
:103DA000704702491431086070470000003C014030
:103DB000FFFF7F0010B504469848844208D10121D6
:103DC000084600F086FB0021012000F082FB76E02F
:103DD0009348844208D10121022000F07AFB00219F
:103DE000022000F076FB6AE08E48844208D101216F
:103DF000042000F06EFB0021042000F06AFB5EE06E
:103E00008948844208D10121082000F062FB00218A
:103E1000082000F05EFB52E08448844208D1012172
:103E2000102000F056FB0021102000F052FB46E06D
:103E30007F48844208D10121202000F04AFB002164
:103E4000202000F046FB3AE07A48844208D1012164
:103E5000402000F03EFB0021402000F03AFB2EE025
:103E60007548844208D10121802000F032FB0021F6
:103E7000802000F02EFB22E07048844208D101210E
:103E8000801500F026FB0021A01500F022FB16E0B3
:103E90006B48844208D10121401500F01AFB002133
:103EA000601500F016FB0AE06648844207D1012144
:103EB000001500F00EFB0021201500F00AFB10BDDC
:103EC000F0B50A4600210023002400BF3DE0012593
:103ED00005FA01F3156805EA03049C4234D105682C
:103EE0004F000326BE40B543056015794E00B5402E
:103EF0000668354305601579012D02D01579022D2C
:103F000016D185684F000326BE40B54385605579BC
:103F10004E00B540866835438560456801268E4071
:103F2000B5434560456896798E40B6B235434560E5
:103F3000C5684F000326BE40B543C560D5794E0025
:103F4000B540C6683543C560491C1029BFD3F0BDD4
:103F50004FF6FF7101600021017141718171C171E2
:103F6000704708B54FF480320092009A0A430092DD
:103F7000009AC261C161009AC261C2690092C269BD
:103F8000009208BD0246002013690B400BB10120CE
:103F900000E0002070470146086980B27047024681
:103FA000002053690B400BB1012000E00020704756
:103FB0000146486980B2704701837047418370476A
:103FC0000AB1018300E04183704741617047426953
:103FD0004A4042617047F0B5002300244D07ED0EC2
:103FE00002FA05F3CE1000F1200555F826504E07D1
:103FF000F70E0F26BE40B543CF1000F1200646F85D
:104000002750CE1000F1200555F8265045EA03044C
:10401000CE1000F1200545F82640F0BD000002401A
:104020000004024000080240000C02400010024060
:104030000014024000180240001C02400020024010
:104040000024024000280240F948006840F00100C6
:10405000F74908600020F64908310860F448006814
:10406000F4490840F2490860F348091D0860F34824
:10407000EF4984310860F0481038091D0860EC48A9
:10408000006820F48020EA4908600020E8490C31EB
:104090000860E7498C31086070470021E44A921CAF
:1040A000117011460870704710B5014600220023B8
:1040B00000204A11012A02D1DD4C236808E0022ABF
:1040C00003D1DB4C7034236802E0D94C743423688C
:1040D00001F01F02012494401C400CB1012000E0BB
:1040E000002010BD38B5002000900024002500BF3E
:1040F0003120FFF7D9FF05460098401C009000983A
:10410000B0F5A04F01D0002DF2D03120FFF7CCFF49
:1041100008B1012400E00024204638BD01460020FB
:10412000C34A106820F0F80040EAC10010607047F0
:10413000C349086070470021BD4A70321170117088
:10414000012802D004280AD104E00121B84A7032C3
:10415000117005E00521B64A7032117000E000BF11
:1041600000BF7047B7490860704770B5049C41EACA
:1041700082150126C6EB530645EA0645054345EA86
:104180000465AB4E361D356070BDAD49086670479D
:10419000820142EA0172A64B84331A607047A84933
:1041A0008866704710B5830143EA016343EA0273EE
:1041B0009F4C8834236010BDA14908677047A0490F
:1041C000C864704702460020994B0833186820F0F5
:1041D000EC6042EA01031843954B083318607047BE
:1041E00002460020924B0833186820F0784042EADB
:1041F000010318438E4B08331860704701460020B6
:104200008B4A0832106820F00300084310607047A2
:1042100087480830006800F00C0070470146002015
:10422000834A0832106820F0F0000843106070479D
:10423000014600207E4A0832106820F4E05008430E
:104240001060704701460020794A0832106820F457
:10425000604040EAC10010607047F0B500210022C4
:104260000024022500260223714F08373F6807F01B
:104270000C0121B1042905D0082937D105E0724F7E
:10428000076036E0714F076033E0694F3F1D3F68BC
:10429000C7F38056664F3F1D3F6807F03F036EB17E
:1042A0006A4FB7FBF3F7DFF888C10CF1040CDCF8B8
:1042B00000C0CCF3881C07FB0CF40CE0624FB7FB8A
:1042C000F3F7DFF86CC10CF1040CDCF800C0CCF3A0
:1042D000881C07FB0CF4564F3F1D3F68C7F301478E
:1042E0007F1C7D00B4FBF5F7076002E0564F0760C6
:1042F00000BF00BF4E4F08373F6807F0F0010909C3
:10430000534F7A5C0768D7404760494F08373F688A
:1043100007F4E051890A4E4F7A5C4768D7408760BE
:10432000434F08373F6807F46041490B484F7A5CB8
:104330004768D740C760F0BD002100F44072B2F575
:10434000407F0AD13A4A0832116821F4F811414AF3
:1043500002401143364A08321160354A7032126801
:10436000C0F30B031A43324B70331A607047354960
:10437000443908607047334940390860704736490E
:104380000860704701460020294A8C32106820F0EE
:104390001F004A1E1043264A8C32106070470146A7
:1043A0000020234A8C32106820F4F8504A1E40EA5C
:1043B00002201F4A8C3210607047014600201C4AC0
:1043C0008C32106820F4401008431060704701469A
:1043D0000020174A8C32106820F440000843106017
:1043E000704701460020124A8C32106820F4403099
:1043F00008431060704719490860704739B10C4A8A
:104400003032126802430A4B30331A6006E0084A21
:10441000303212688243064B30331A607047F9B16C
:10442000034A343212680243014B34331A601CE0F1
:1044300000380240FFFFF6EA103000240030002070
:1044400000004742800E47420024F40000127A0028
:10445000C8000020FFFCFF0F5C014742E01147420B
:10446000854A12688243844B1A60704739B1824A88
:10447000121D12680243804B1B1D1A6006E07E4A23
:10448000121D126882437C4B1B1D1A60704739B1A4
:10449000794A0C3212680243774B0C331A6006E0FB
:1044A000754A0C3212688243734B0C331A607047A2
:1044B00039B1714A1032126802436F4B10331A60DF
:1044C00006E06D4A1032126882436B4B10331A605B
:1044D000704739B1684A243A12680243664B243B5C
:1044E0001A6006E0644A243A12688243624B243B15
:1044F0001A60704739B1604A203A126802435E4B35
:10450000203B1A6006E05C4A203A126882435A4B0C
:10451000203B1A60704739B1574A1C3A126802436F
:10452000554B1C3B1A6006E0534A1C3A1268824302
:10453000514B1C3B1A60704739B14F4A143A12680C
:1045400002434D4B143B1A6006E04B4A143A126882
:104550008243494B143B1A60704739B1464A103ABE
:1045600012680243444B103B1A6006E0424A103A7C
:1045700012688243404B103B1A60704739B13E4A83
:104580001C32126802433C4B1C331A6006E03A4A64
:104590001C3212688243384B1C331A60704739B1A1
:1045A000354A203212680243334B20331A6006E04A
:1045B000314A2032126882432F4B20331A607047F1
:1045C00039B12D4A2432126802432B4B24331A602E
:1045D00006E0294A243212688243274B24331A60AA
:1045E000704739B1244A2C3212680243224B2C33D3
:1045F0001A6006E0204A2C32126882431E4B2C338C
:104600001A60704739B11C4A3032126802431A4BA3
:1046100030331A6006E0184A303212688243164B73
:1046200030331A60704739B1134A273A127802437F
:10463000114B273B1A7006E00F4A273A1278824343
:104640000D4B273B1A7070470B484030006840F014
:104650008070094940310860704701460020064AD1
:10466000283A12680A400AB1012000E00020704791
:1046700001492639087070473438024010B50121CD
:104680008803FFF76AFF00214FF48040FFF765FFC2
:1046900010BD1C49086070471B490862704730B55F
:1046A00000228B071C0F0F2303FA04F2154B08336B
:1046B0008C1053F824309343124C08348D1044F876
:1046C000253023468C1053F824308C07240F00FA31
:1046D00004F423430B4C08348D1044F8253030BDCE
:1046E0000949DC31086070470849086070470020BC
:1046F00004492031096801F4807109B1012000E00A
:104700000020704700380140000027420004274283
:1047100010B50446FA48844208D101211020FFF761
:104720001CFF00211020FFF718FF57E0F5488442D6
:1047300009D101214804FFF7FFFE00214FF40030AA
:10474000FFF7FAFE4AE0F048844209D101218804CB
:10475000FFF7F2FE00214FF48020FFF7EDFE3DE071
:10476000EA48844209D10121C804FFF7E5FE00218F
:104770004FF40020FFF7E0FE30E0E548844209D125
:1047800001210805FFF7D8FE00214FF48010FFF744
:10479000D3FE23E0DF48844208D101212020FFF727
:1047A000DCFE00212020FFF7D8FE17E0DA48844223
:1047B00009D101218807FFF7BFFE00214FF080409B
:1047C000FFF7BAFE0AE0D548844207D1012140052F
:1047D000FFF7B2FE00216005FFF7AEFE10BD2DE928
:1047E000FF4705460E460024A14600BFA046B089FB
:1047F00000B100BF2C8A24F44054F08804432C827A
:10480000AC8941F20C608443B088318908437189D6
:1048100008430443AC81AC8A24F44074B089044357
:10482000AC826846FFF719FDB548854202D0B94809
:10483000854202D1DDF80C9001E0DDF80890A889EE
:1048400000F4004040B109EBC90000EB09103168E9
:104850004900B0FBF1F707E009EBC90000EB0910D4
:1048600031688900B0FBF1F76420B7FBF0F0040178
:104870002009642101FB1078A88900F4004040B1B0
:10488000322000EBC800B0FBF1F000F00700044359
:1048900008E0322000EB08106421B0FBF1F000F0DA
:1048A0000F0004432C81BDE8FF874FF416510160CF
:1048B00000218180C18001810C2141810021818101
:1048C000704710B502460020108A20F470600B88F3
:1048D0004C8823438C882343CC882343184310827D
:1048E00010BD0021018041808180C180704721B1CD
:1048F000828942F40052828104E082894DF6FF737E
:104900001A4082817047028B02F47F420283028B3D
:104910000A430283704721B1828942F400428281B6
:1049200003E08289C2F30E028281704721B1828A3C
:1049300042F40062828204E0828A4FF2FF731A40DE
:1049400082827047C1F308028280704701468888DE
:10495000C0F308007047028A4FF6F0731A400282D3
:10496000028A0A430282704721B1828942F0020220
:10497000828104E082894FF6FD731A40828170477C
:1049800082894FF2FF731A40828182890A438281B1
:104990007047028A4FF6DF731A400282028A0A4386
:1049A0000282704721B1028A42F48042028204E00E
:1049B000028A4BF6FF731A4002827047818941F0E8
:1049C00001018181704721B1828A42F0080282820E
:1049D00004E0828A4FF6F7731A4082827047028B96
:1049E000D2B20283028B42EA01220283704721B1D4
:1049F000828A42F02002828204E0828A4FF6DF73CC
:104A00001A408282704721B1828A42F0100282826B
:104A100004E0828A4FF6EF731A4082827047828ADE
:104A20004FF6FB731A408282828A0A438282704761
:104A300021B1828A42F00202828204E0828A4FF629
:104A4000FD731A40828270471AB1838A0B438382B6
:104A500002E0838A8B4383827047F0B503460024CB
:104A600000260025002040F66A17B94200D100BF99
:104A70001846C1F3421401F01F06012707FA06F594
:104A8000012C01D10C3004E0022C01D1103000E0E7
:104A900014301AB107682F43076002E00768AF437C
:104AA0000760F0BD02460020B1F5007F00D100BFD5
:104AB00013880B400BB1012000E00020704701F487
:104AC0000072B2F5007F00D100BFCA430280704778
:104AD00070B50246002400230025002040F66A1627
:104AE000B14200D100BFC1F3421501F01F030126FE
:104AF00006FA03F3012D13D19689334017E0000025
:104B0000001001400044004000480040004C0040BC
:104B1000005000400014014000780040007C00403C
:104B2000022D02D1168A334001E0968A33400C12DE
:104B3000012606FA04F41688344013B10CB10120A2
:104B400000E0002070BD10B50022002340F66A147A
:104B5000A14200D100BF0A1201249440A3B2DC4359
:104B6000048010BD032A40F2308010F0030C00F0E6
:104B7000158011F8013BBCF1020F624498BF11F897
:104B800001CB00F8013B38BF11F8013BA2F1040250
:104B900098BF00F801CB38BF00F8013B11F00303C8
:104BA00000F03080083AC0F0088051F8043B083A21
:104BB00051F804CBA0E80810F5E7121D5CBF51F8CE
:104BC000043B40F8043BAFF30080D20724BF11F848
:104BD000013B11F801CB48BF11F8012B24BF00F8AD
:104BE000013B00F801CB48BF00F8012B704702F0F1
:104BF000FF0343EA032242EA024200F037B870475B
:104C00007047704710B5203AC0F00B80B1E81850DB
:104C1000203AA0E81850B1E81850A0E81850BFF4A6
:104C2000F5AF5FEA027C24BFB1E81850A0E8185045
:104C300044BF18C918C0BDE810405FEA827C24BF99
:104C400051F8043B40F8043B08BF7047D20728BF27
:104C500031F8023B48BF11F8012B28BF20F8023B76
:104C600048BF00F8012B70474FF000020429C0F044
:104C7000128010F0030C00F01B80CCF1040CBCF18E
:104C8000020F18BF00F8012BA8BF20F8022BA1EBE0
:104C90000C0100F00DB85FEAC17C24BF00F8012BC5
:104CA00000F8012B48BF00F8012B70474FF00002BD
:104CB00000B5134694469646203922BFA0E80C5012
:104CC000A0E80C50B1F12001BFF4F7AF090728BFED
:104CD000A0E80C5048BF0CC05DF804EB890028BF69
:104CE00040F8042B08BF704748BF20F8022B11F092
:104CF000804F18BF00F8012B7047754600F02CF864
:104D0000AE4605006946534620F00700854618B0B8
:104D100020B5FBF7F3FABDE820404FF000064FF056
:104D200000074FF000084FF0000B21F00701AC46E0
:104D3000ACE8C009ACE8C009ACE8C009ACE8C009FF
:104D40008D46704710B50446AFF300802046BDE89D
:104D50001040FBF762BA000000487047482E01205F
:104D600001491820ABBEFEE72600020070474FF055
:104D70004070E1EE100A70470010008000400020F3
:104D80000800000008000000080000000800000003
:104D9000010000000100000001000000060000000A
:104DA00000000400040000000400000000040008EB
:104DB0000A000B0007000700D84D00080000002083
:104DC000D8000000C4010008B04E0008D800002040
:104DD000D0330100E0010008007A030A000000005F
:104DE000000000000102030406070809000000009B
:104DF00000000000000000000000000000000000B3
:104E00000000000000000000000C0240000C024006
:104E1000000C0240000C02400000024000000000B4
:104E20000048004000080240000802400000000066
:104E30000000000000000000000000000000000072
:104E40000000000000000000000000000000000062
:104E50000000000000000000000000000000000052
:104E60000000000000000000000000000000000042
:104E7000000000000000000000000000AAAAAAAA8A
:104E80000000000000000000000000000000000022
:104E90000000000000000000F82B010000000000EE
:104EA00000000000010203040102030406070809D0
:040000050800018965
:00000001FF
