:020000040800F2
:1000000020070020290200083102000833020008FE
:10001000350200083702000839020008000000001D
:100020000000000000000000000000003B0200088B
:100030003D020008000000003F02000841020008E5
:10004000430200084302000843020008430200087C
:100050004302000843020008E502000843020008CA
:10006000430200084302000843020008430200085C
:10007000430200084302000843020008430200084C
:10008000430200084302000843020008430200083C
:10009000430200084302000843020008430200082C
:1000A000430200084302000843020008430200081C
:1000B000DD0E000843020008430200084302000866
:1000C00043020008430200084302000843020008FC
:1000D00043020008430200084302000843020008EC
:1000E00043020008430200084302000843020008DC
:1000F00043020008430200084302000843020008CC
:100100004302000843020008DD0F00084302000814
:1001100043020008430200084302000843020008AB
:10012000430200084302000843020008430200089B
:10013000430200084302000843020008430200088B
:10014000430200084302000843020008430200087B
:10015000430200084302000843020008430200086B
:10016000430200084302000843020008430200085B
:10017000430200084302000843020008430200084B
:10018000430200084302000800F002F800F03CF8C7
:100190000AA090E8000C82448344AAF10107DA45E2
:1001A00001D100F031F8AFF2090EBAE80F0013F0F8
:1001B000010F18BFFB1A43F0010318472C1F000062
:1001C0004C1F0000103A24BF78C878C1FAD85207F3
:1001D00024BF30C830C144BF04680C6070470000C1
:1001E0000023002400250026103A28BF78C1FBD840
:1001F000520728BF30C148BF0B6070471FB501F0E0
:1002000068FF1FBD10B510BD00F031F81146FFF7B3
:10021000F5FF01F09DF900F04FF803B4FFF7F2FF8E
:1002200003BC00F057F80000094880470948004720
:10023000FEE7FEE7FEE7FEE7FEE7FEE7FEE7FEE796
:10024000FEE7FEE704480549054A064B70470000F3
:10025000750E0008890100082001002020070020F9
:100260002003002020030020704770477047754628
:1002700000F02CF8AE4605006946534620F0070012
:10028000854618B020B5FFF7DDFFBDE820404FF0F0
:1002900000064FF000074FF000084FF0000B21F070
:1002A0000701AC46ACE8C009ACE8C009ACE8C0093D
:1002B000ACE8C0098D46704710B50446AFF3008026
:1002C0002046BDE81040FFF7A8BF00000048704777
:1002D000C000002001491820ABBEFEE72600020046
:1002E0007047000010B5012000F02EF800B311484F
:1002F000006810B90020104908600F48006838B93C
:100300000121880700F0AFFE01200B4908600CE0D6
:1003100008480068962808DD07480068012804D1CD
:1003200005480068401C04490860012000F006F8F8
:1003300010BD0000000000202400002001490860DA
:1003400070470000143C014001460020034A126837
:100350000A400AB1012000E000207047143C01402F
:10036000002123498279002A3AD00A46126803689C
:100370009A430B461A600A1D126803689A430B1DC4
:100380001A60027911440A6803681A430A60184A1D
:100390000832126803689A43154B08331A601A1D15
:1003A000126803689A43124B0C331A604279102A80
:1003B0000ED11A1F126803681A430D4B08331A60D6
:1003C0001A1D126803681A43094B0C331A600DE0BA
:1003D0000749427911440A6803681A430A6005E034
:1003E000027911440A6803689A430A607047000062
:1003F000003C014008B506208DF8000000208DF873
:1004000001008DF8020001208DF80300684600F01D
:1004100031FB08BD08B51C208DF8000001208DF8C7
:10042000010002208DF8020001208DF803006846CB
:1004300000F020FB32208DF8000001208DF8010033
:100440008DF802008DF80300684600F013FB08BD2C
:10045000F0B50A4600210023002400BF3DE001253D
:1004600005FA01F3156805EA03049C4234D10568D6
:100470004F000326BE40B543056015794E00B540D8
:100480000668354305601579012D02D01579022DD6
:1004900016D185684F000326BE40B5438560557967
:1004A0004E00B540866835438560456801268E401C
:1004B000B5434560456896798E40B6B23543456090
:1004C000C5684F000326BE40B543C560D5794E00D0
:1004D000B540C6683543C560491C1029BFD3F0BD7F
:1004E000F0B5002300244D07ED0E02FA05F3CE10FF
:1004F00000F1200555F826504E07F70E0F26BE4096
:10050000B543CF1000F1200646F82750CE1000F179
:10051000200555F8265045EA0304CE1000F12005C9
:1005200045F82640F0BD0246002013690B400BB190
:10053000012000E00020704741837047018370472D
:100540004FF6FF7101600021017141718171C1712C
:10055000704742694A404261704721B1028842F4C3
:100560008062028004E002884FF6FF331A40028066
:10057000704770B502460024002500230020958AAC
:10058000138B1B0445EA030626F07F4404EA0106A8
:100590008E4201D1012000E0002070BD21B102880F
:1005A00042F00102028004E002884FF6FE731A4016
:1005B0000280704710B504461348844209D10121D6
:1005C000480500F0B3FA00214FF4001000F0AEFA35
:1005D00018E00E48844209D10121880500F0A6FAEE
:1005E00000214FF4800000F0A1FA0BE0084884429B
:1005F00008D10121C80500F099FA00214FF400004C
:1006000000F094FA10BD0000005400400058004073
:10061000005C004021B1028842F48072028004E054
:1006200002884FF6FF631A400280704721B10288AA
:1006300042F40072028004E002884FF6FF531A4031
:10064000028070470CB502460020002301930093FE
:1006500000920B0F019321F07F41019B1BB1009B86
:100660001433009303E0090C009B18330093009BA4
:100670001B680B400BB1012000E000200CBD000006
:100680002DE9FF4704460D460026B1460427DFF852
:10069000CC80A6884FF6C0700640684600F076FA17
:1006A000DDF808802E48B8FBF0F01FFA80F946EA22
:1006B0000906A68020884FF6FE710840208000269B
:1006C0002849286888420CD828684000B8FBF0F018
:1006D00087B2042F00DA04273E4309F10100208489
:1006E00027E0E8884BF6FF71884206D1286800EBC6
:1006F0004000B8FBF0F087B209E0286800EBC001C9
:1007000001EB0010B8FBF0F087B247F48047C7F365
:100710000B0008B947F0010747F4004006434FF4C7
:10072000967009FB00F04FF47A7190FBF1F0401CD9
:100730002084A683208840F00100208026884FF680
:10074000F5300640A8886989084306432680A889B1
:10075000298908432081BDE8FF87000000127A0044
:1007600040420F00A08601000146088AC0B27047CF
:1007700012B141F0010101E001F0FE010182704778
:100780000182704721B1828B42F48062828304E04F
:10079000828B4FF6FF331A40828370472DE9F04F6A
:1007A00000250223002401270022002694469046BB
:1007B0009146B0F81CA04FF2400B0AEA0B0AA0F8D1
:1007C0001CA04FF0020AA0F820A0858BD1F808A049
:1007D000BAF1020F01D100BF6CE0B1F804A0BAF188
:1007E000000F01D1012700E00227DFF810A1DAF89D
:1007F00000A00AF4000ABAF1000F09D0DFF8FCA04B
:10080000DAF800A02AF4000ADFF8F0B0CBF800A074
:10081000DFF8E8A00AF17C0ADAF800A0CAF3881829
:10082000DFF8D8A00AF17C0ADAF800A0CAF302794E
:10083000DFF8C8A0AAF1040ADAF800A00AF03F0C19
:10084000DFF8BCA0BAFBFCFA0AFB08FABAFBF9F61F
:10085000B1F806A0BAF5007F0ED14FEA162A0AEBCE
:100860008A0A4FEA4A0AD1F808B0BAFBFBFA0AF141
:10087000050A1FFA8AF20FE04FEA471AB6FBFAFAA6
:100880000AEB8A0A4FEA4A0AD1F808B0BAFBFBFA27
:100890000AF1050A1FFA8AF24FF00A0AB2FBFAF2CD
:1008A00002F00104A2EB040ACAF34F034FF6FF7AE9
:1008B0000AEA0424022B01DBFF2B01DD02230024C2
:1008C000B1F806A04AEA040A4AEA030AA0F820A0FE
:1008D000B1F804A0B1F80CB04AEA0B0AB1F802B0C2
:1008E0004AEA0B0AB1F800B04AEA0B0A4AF4006A75
:1008F0004AEA05058583BDE8F08F0000083802400C
:1009000000127A001CB50121084600F0EFF8002023
:100910008DF804008DF806000120009002208DF86B
:10092000070003208DF8050069460248FFF790FD97
:100930001CBD0000000002401CB50121880300F02E
:1009400005F90021084600F0FFF9012000908DF81C
:10095000060000208DF8040008208DF80500684688
:10096000FFF7FEFC1CBD00001CB50121082000F0B3
:10097000BDF801208DF8040000208DF806008DF8E8
:1009800007004FF47040009002208DF80500694682
:100990000148FFF75DFD1CBD000C02401CB50121A4
:1009A000082000F0A3F84FF40040009001208DF8DB
:1009B000040000208DF8060002208DF8050069462D
:1009C0000948FFF745FD0121042000F08FF800F0F1
:1009D000C5FC00F011FC01210448FFF7D3FE0448D8
:1009E00000F07CFD1CBD0000000C0240003C0040FB
:1009F0005C0000200EB50121084600F087F8532066
:100A0000ADF800000020ADF8020040F2E7300190A0
:100A10000020ADF808008DF80A0069464FF08040CC
:100A200000F048FB0121082000F070F85320ADF8D9
:100A300000000020ADF8020040F2E73001900020F5
:100A4000ADF808008DF80A006946094800F032FB4D
:100A50000121074800F007FB01221146900700F032
:100A60001FFB01221146024800F01AFB0EBD0000D8
:100A7000000C004070B5002100230F22C4781CB385
:100A8000174C246804F4E064C4F5E064C4F307215F
:100A9000C1F10404E3B20A4144789C40E1B2847895
:100AA000144021430C07210E0E4C05786155047843
:100AB00004F01F050124AC4005786D11AD0005F16F
:100AC000E025C5F8004109E0047804F01F05012481
:100AD000AC40054D0678761145F8264070BD000003
:100AE0000CED00E000E400E080E100E029B1064AFE
:100AF00012680243044B1A6004E0034A12688243FE
:100B0000014B1A60704700003038024029B1064A94
:100B100012680243044B1A6004E0034A12688243DD
:100B2000014B1A60704700004038024029B1064A64
:100B300012680243044B1A6004E0034A12688243BD
:100B4000014B1A60704700002038024029B1064A64
:100B500012680243044B1A6004E0034A126882439D
:100B6000014B1A60704700004438024029B1064A20
:100B700012680243044B1A6004E0034A126882437D
:100B8000014B1A607047000024380240F0B5002184
:100B900000220024022500260223324F3F6807F07E
:100BA0000C0121B1042905D0082937D105E02E4FC9
:100BB000076036E02D4F076033E02A4F3F1F3F6844
:100BC000C7F38056274F3F1F3F6807F03F036EB1C2
:100BD000264FB7FBF3F7DFF88CC0ACF1040CDCF860
:100BE00000C0CCF3881C07FB0CF40CE01E4FB7FBD5
:100BF000F3F7DFF870C0ACF1040CDCF800C0CCF304
:100C0000881C07FB0CF4174F3F1F3F68C7F30147D1
:100C10007F1C7D00B4FBF5F7076002E0124F076010
:100C200000BF00BF0F4F3F6807F0F0010909104FE8
:100C30007A5C0768D74047600A4F3F6807F4E05185
:100C4000890A0B4F7A5C4768D7408760054F3F6839
:100C500007F46041490B064F7A5C4768D740C7608C
:100C6000F0BD0000083802400024F40000127A00B1
:100C70004A00002001498866704700000000474292
:100C800010B504462448844208D101218014FFF79E
:100C90006DFF0021A014FFF769FF3CE01F4884426C
:100CA00008D101210014FFF741FF00212014FFF7B4
:100CB0003DFF30E01A48844208D10121C013FFF7FC
:100CC00035FF0021E013FFF731FF24E0154884428F
:100CD00008D101214014FFF749FF00216014FFF7FC
:100CE00045FF18E01048844209D101210805FFF7AB
:100CF0003DFF00214FF48010FFF738FF0BE00B4859
:100D0000844208D101214805FFF730FF00214FF44C
:100D10000010FFF72BFF10BD0030014000380040ED
:100D2000003C0040003401400050014000540140AC
:100D30000246002013890B400BB1012000E0002087
:100D4000704781817047000030B500228B071C0F6F
:100D50000F2303FA04F20B4B8C1053F82430934307
:100D6000084C8D1044F8253023468C1053F824305D
:100D70008C07240F00FA04F42343024C8D1044F82E
:100D8000253030BD083801400CB50020019000909E
:100D90003448006840F480303249086000BF314870
:100DA000006800F4003000900198401C0190009809
:100DB00018B90198B0F5A04FF1D12A48006800F4A5
:100DC000003010B10120009001E000200090009858
:100DD000012846D123484030006840F08050214926
:100DE000403108602048006840F440401E490860D7
:100DF0001C48083000681B49083108600846006834
:100E000040F4004008600846006840F4A0500860C4
:100E10001648091F0860081F006840F08070091F0D
:100E2000086000BF0F48006800F000700028F9D08B
:100E300040F205700E4908600A480830006820F04A
:100E400003000849083108600846006840F00200C5
:100E5000086000BF03480830006800F00C00082854
:100E6000F8D10CBD00380240007000400854400723
:100E7000003C024010B51548006840F4700013496A
:100E800008601348006840F0010011490860002024
:100E90000F49083108600E4800680E4908400C49A7
:100EA00008600D48091D0860081F006820F48020B4
:100EB000091F0860002006490C310860FFF764FF35
:100EC0004FF0006001498039086010BD88ED00E0F6
:100ED00000380240FFFFF6FE1030002410B501215B
:100EE000880700F0CCF800286CD00121880700F0BA
:100EF000B7F835480068401C334908600121334881
:100F0000FFF711FB012804D131480068401C30492B
:100F1000086030480068002846DD2F480068002837
:100F200042D12B48006840F2DC51884210DB01219D
:100F30002648FFF7F8FA01280AD100202449086062
:100F40002449086001202449086000F017F92BE0CB
:100F50002048006802280FDB1B480068B0F5FA7FC4
:100F60000ADC00201A4908601A49086001201A4961
:100F7000086000F0EDF817E016480068012813D16A
:100F800011480068B0F5FA7F0EDD01210F48FFF728
:100F9000CAFA48B900200E4908600E4908600120CD
:100FA0000D49086000F00AF90B480068012809D1D2
:100FB0000020054908600849086000214FF0804082
:100FC00000F051F810BD00000000002000000240B9
:100FD0002C000020240000203000002010B501214A
:100FE000194800F04CF850B30121174800F038F8C8
:100FF00016480068401C15490860084600681449F6
:10100000884202DB0020114908601248006801286C
:1010100018D111480068401C0F4908600B4800684F
:101020004FF4FA7190FBF1F201FB120038B90A4853
:1010300000680A490968884202DB00F039FA01E0D9
:1010400000F07AF810BD0000000C00400400002001
:10105000C02709001C0000201800002014000020F8
:10106000CA430282704721B1028842F00102028025
:1010700004E002884FF6FE731A400280704730B5D4
:101080000246002000230024158A05EA0103958901
:1010900005EA010413B10CB1012000E0002030BDCD
:1010A0001AB183890B43838102E083898B43838157
:1010B0007047000000220288184B98420ED0184B4F
:1010C00098420BD0B0F1804F08D0164B984205D013
:1010D000154B984202D0154B984204D14FF68F73AE
:1010E0001A404B881A43124B984207D0114B984232
:1010F00004D04FF6FF431A400B891A4302804B6815
:10110000C3620B880385054B984202D0044B98427A
:1011100001D18B7A0386012383827047000001404E
:10112000000401400004004000080040000C0040A2
:10113000001000400014004010B50348008881B240
:101140000248FFF706FA10BD10000020000C024014
:1011500010B507480068012808D10020044908603C
:101160000448008881B20448FFF7E8F910BD000088
:101170001C00002010000020000C024000B50D48AB
:101180000068B0B90C48006830B1012807D00228C7
:1011900008D003280CD108E000F094F908E000F032
:1011A00091F905E000F08EF902E000F08BF900BF44
:1011B00000BF00BD1C0000202000002010B50B481F
:1011C000006858B90A480068401C09490860084688
:1011D000006800F0D3FA0649086006E0034800689A
:1011E000012802D100200349086010BD1C00002026
:1011F00020000020180000207CB5FF241021554855
:10120000FFF79CF9544D00E06D1E002DFCD10D2020
:101210008DF8000001208DF801000221684600F0E1
:1012200001FB00208DF8000099208DF801000221BB
:10123000684600F0F7FA47208DF8000080208DF80E
:1012400001000221684600F0EDFA322000F026FA93
:10125000044632208DF8000044F080008DF8010033
:101260000221684600F0DEFA322000F017FA044648
:1012700032208DF8000024F080008DF8010002215A
:10128000684600F0CFFA00208DF800008DF80100CC
:101290000221684600F0C6FA04208DF80000AF2055
:1012A0008DF801000221684600F0BCFA0D208DF88F
:1012B000000070208DF801000221684600F0B2FAAB
:1012C00005208DF8000081208DF80100022168467C
:1012D00000F0A8FA06208DF8000007208DF8010024
:1012E0000221684600F09EFA0A208DF800000020D6
:1012F0008DF801000221684600F094FA27208DF84D
:10130000000000208DF801000221684600F08AFAF2
:101310009A208DF800000A208DF801008DF8020057
:101320000321684600F07EFA1F208DF800000F2090
:101330008DF801000221684600F074FA02208DF851
:1013400000009E208DF801000221684600F06AFA34
:101350007CBD0000000C024040420F001CB56846F6
:10136000FFF7EEF81020009001208DF80400022015
:101370008DF8070000208DF8060002208DF805008A
:1013800001210B20FFF7B2FB69464048FFF760F8E8
:1013900002208DF8040001208DF806004FF4107033
:1013A000009000208DF8070002208DF805006946A6
:1013B0003748FFF74DF8042206213548FFF790F82B
:1013C000042209213248FFF78BF801214FF4021063
:1013D000FFF79CFB0120FFF74DFC00208DF8060075
:1013E0004FF4A450009069462A48FFF731F81020C6
:1013F000009069462848FFF72BF80622042126486A
:10140000FFF76EF8062207212248FFF769F8062247
:101410000A212048FFF764F806220C211D48FFF737
:101420005FF810211948FFF787F81C48FFF728FCE0
:101430004BF680301A4988604FF40070C880002055
:1014400088804FF40070088000204880888113480D
:10145000FFF7A4F91348FFF7ADF8134813490860E4
:1014600000208880332008814FF48060488100018B
:1014700088814BF6FF70C88001210A48FFF78EF87B
:101480000A490848FFF7FCF81CBD0000000C0240A8
:10149000000402400008024000000240003C0040FE
:1014A000A000002000540040A0860100B0000020F1
:1014B00010B5002002490860022000F05FF810BD5E
:1014C0001C00002000200349086001200249086038
:1014D00070470000180000201C000020002280F847
:1014E0004020002107E09FED150A00EB810282ED0C
:1014F000000A4A1CD1B20829F5DB9FED110A80EDE4
:10150000080A9FED100A80ED090A9FED0F0A80ED91
:101510000A0A9FED0E0A80ED0B0A9FED0C0A80ED82
:101520000C0A9FED090A80ED0D0A9FED060A80ED79
:101530000E0A9FED030A80ED0F0A704700000000BD
:101540000AD7233CCDCC4C3D8FC2F53D0AD7A33EF4
:10155000FFF7D8F9FFF708FAFFF74CFAFEF75AFF42
:10156000FFF7EAF9FEF746FFFFF718FA02480068AE
:1015700000F004F900BFFEE72000002010B52DEDBB
:10158000048B044600203649086060E0022135489B
:10159000FFF7CEFB00285AD03348008881B231488B
:1015A000FFF7CFFB2E48006800F00100F0B39FED7D
:1015B0002F0B53EC102B2F4890ED000B51EC100B20
:1015C00000F0D8F92B4A03C29FED2B0B53EC102BE4
:1015D000284890ED000B51EC100B00F0E9FB0CD209
:1015E0009FED270B53EC102B224890ED000B51EC94
:1015F000100B00F013FC1F4A03C21E4890ED000BB5
:1016000051EC100B00F084F908EE100AB0EE480A15
:101610001D4800F04FF91D4880ED000A006800F0F9
:10162000E7FC41EC190B9FED1A0B00E00AE053ECCC
:10163000102B00F0BFFA41EC180B00F04FFA00B28B
:101640000949088006480068401C0549086012489E
:10165000604303490968884298D8BDEC048B10BDEB
:1016600044000020003C004048000020B81E85EBEC
:1016700051B88E3F38000020000000000000F03F0D
:1016800000000000000000405C000020400000203E
:101690000000000000407F400077010070B5044664
:1016A000002500BF4FF400313048FEF7CBFF002883
:1016B000F8D101212D48FEF7ADFF00BF2C492B4882
:1016C000FEF7C0FF0028F9D0002294212748FFF739
:1016D0004FF800BF27492548FEF74BFF0028F9D0F7
:1016E00021462248FFF74CF800BF2249891E1F48B7
:1016F000FEF73FFF0028F8D001211C48FEF796FFB7
:1017000000BF4FF400311948FEF79CFF0028F8D1C4
:1017100000211648FEF721FF01211448FEF77AFF49
:1017200000BF13491148FEF78DFF0028F9D00122B0
:1017300094210E48FFF71CF800BF0F490B48FEF735
:1017400018FF0028F9D000BF0B493E310748FEF7CB
:1017500010FF0028F8D00548FFF706F805460121DC
:101760000248FEF763FF284670BD000000540040A9
:1017700001000010820007000200030010B50446BB
:10178000032C00DD00244FF470412348FEF7D4FE03
:1017900034B1012C12D0022C1ED0032C38D129E0F8
:1017A0004FF480511C48FEF7C9FE4FF480501B498E
:1017B00008604FF4FA601A49086029E04FF40051BC
:1017C0001548FEF7BBFE4FF40050144908604FF473
:1017D0007A60134908601BE04FF480410E48FEF721
:1017E000ADFE4FF480400D4908604FF448700C493D
:1017F00008600DE04FF400410748FEF79FFE4FF4EC
:1018000000400649086042F210700549086000BFB8
:1018100000BF204610BD0000000C02401000002058
:101820001400002070B505460E46002400BF4FF49A
:1018300000311D48FEF706FF0028F8D101211A48A3
:10184000FEF7E8FE00BF19491748FEF7FBFE002827
:10185000F9D0002294211448FEF78AFF00BF1449F2
:101860001148FEF786FE0028F9D00DE0295D0E48EC
:10187000FEF786FF601CC4B200BF0D49891E0A48EE
:10188000FEF777FE0028F8D0B442EFDB00BF07492F
:10189000C91C0548FEF7D6FE0028F8D001210248F1
:1018A000FEF7C4FE70BD00000054004001000010AF
:1018B00082000700F0EE400A9FED141AB0EE410AD4
:1018C00090F8401000EB8103C3ED000A002214E001
:1018D00000F1200303EB8203D3ED001A8B1803F011
:1018E000070300EB830393ED002AB0EE401A01EEEC
:1018F000821AB0EE410A531C9AB2082AE8DB4B1C4C
:1019000099B201F0070180F8401070470000000014
:1019100021F00042A2F16052B2F5801F01F00043B5
:1019200028BFD2F17F6C0BD95FEA001C43EAC202E8
:1019300042EB507018BF704728BF20F0010070477D
:10194000B2F5801FBCBF184670474FEA410C1CF52A
:10195000001F02D2084600F0C1BB70B500F0D4F9F8
:1019600000000089FFF7F6BF4FF00040A0F58000AF
:101970007047000010B591EA030F48BF83F00043A1
:1019800000F15482841A71EB030C05D2121943EB57
:101990000C03001B61EB0C01DFF824E14FEA11544A
:1019A000A4EB135C1EEA430F18BF9EEA445F73D09A
:1019B00023EA0E03DCF1200E21EA045143F48013E4
:1019C00032D322FA0CFE10EB0E0023FA0CFE41EB90
:1019D0000E01CCF1200E03FA0EFE10EB0E0051F1B9
:1019E0000001B1F5801FCCF1200E32D201EB045181
:1019F00012FA0EF2BDE8104058BF7047401C38BFC5
:101A00005FEA420218BF7047002814BF20F00100AF
:101A100041F100014FEA410313F5001F38BF704741
:101A2000A1F1C04100F0BEB9012A43EB0302ACF1C1
:101A3000200CDCF11F0E32BF4FF0000E23FA0CF326
:101A400010EB030041EB0451B4EB115FD0D0A1EBDC
:101A5000045101F5801149085FEA300001EB04519F
:101A60000ED350F1000038BF12FA0EFE08D1BDE8C7
:101A70001040C9E7401C38BF5FEA4202CAD1C3E741
:101A8000BDE810404FEA410313F5001F38BF70470F
:101A9000A1F1C04100F086B99EEA445F08D011EA86
:101AA0005E0FBDE8104004BF01F000410020704708
:101AB000BDE8104070B500F027F900BF64FBBE3EE2
:101AC0000000E0FF491058BFC1F140415B1058BF12
:101AD000C3F140438B42EFF3008070474FEA41036C
:101AE0004FEA5353A3F58063D3F11E03C8BFD3F16C
:101AF000210C0CDD4FF0004242EAC12242EA505272
:101B000032FA03FC8CEAE17CACEBE1707047102BFD
:101B1000C4BF0020704703F5787CBCF1FF3F04D0C0
:101B20006FF0004282EA2100704770B500F0ECF8D7
:101B30004992248000207047F2E7000051EA030C2C
:101B400017D41CF5801F58BFBCF5801F00F106801C
:101B5000994218BF704708BF9042704707D711F5E8
:101B6000801F58BF13F5801F19D4994270478942CE
:101B700070471CF5801F08D5BCF5801FF7D58B4238
:101B800018BF704708BF824270474FF4001C1CEB1F
:101B9000410F38BF1CEB430F01D28B42704770B529
:101BA00000F0B2F8922449004FF000514FF08053FA
:101BB000FFF788BFDFF848C170B51CEA111E1EBFD1
:101BC0001CEA13159EEA0C0F95EA0C0F00F06F80CB
:101BD00081EA030423EA4C134EEAD47E21EA4C1135
:101BE00041F4801143F48013AE44A1FB024CA0FBEE
:101BF0000365AEF17F7E361955EB0C05A1FB034C56
:101C00004CF10003A0FB021C16EB0C06654153F1DE
:101C10000003094218BF46F0010613F4007F0BD100
:101C20004FEA03314FEA0530340341EA155140EAE7
:101C300016506FF003020AE04FEAC3214FEAC520B5
:101C4000F40241EA555140EA56506FF0020202EBAD
:101C50002E4201EB025585EACE710AD05FEA440CB0
:101C600018BF24F0004450F1000041F1000120EAC7
:101C7000D47040F2FE7C624500D270BDA84214BF11
:101C80004FF080444FF04044002E08BF0024BEF1C6
:101C9000806FA8BFA1F1C041BDE8704080F2828092
:101CA0004FF0000001F1C04101F0004170479EEA91
:101CB0000C0F0CEA131518BF95EA0C0F06D04FF065
:101CC000000081EA030E0EF0004170BD00F01CF828
:101CD0008900013E00F007B800F009B84FEA430C54
:101CE0005FEA5C5C08D081EA030100F05BB84FEA70
:101CF000410C5FEA5C5CF6D14FF00000014970478F
:101D00000000FF070000F87F0EF1020E2EF0030E18
:101D10005EF8046B364205D4012A43EB030515F542
:101D2000001F12D8012841EB010C1CF5001F0CD834
:101D30000ED14FEAD17C15F5001F0CEB4C0C0CF1C9
:101D4000020C08BF4CEBD37C04E04FF0080C01E020
:101D50004FEAD37C0CEB4C0526FA05F606F0070695
:101D6000B6F1040C06D20EEB860CBDE870404CF0C8
:101D7000010C6047DFE80CF0090B02024FF0004154
:101D80004FF00000A1F5002170BD19461046012852
:101D900051EB010418BFD4F5001484BF002001F0FA
:101DA000004170BD0808A0F500114FEA31017047ED
:101DB00053EA010C17D41CF5801F58BFBCF5801FD7
:101DC00000F106808B4218BF704708BF82427047FF
:101DD00007D713F5801F58BF11F5801F19D48B4208
:101DE00070479B4270471CF5801F08D5BCF5801FCB
:101DF000F7D5994218BF704708BF904270474FF41B
:101E0000001C1CEB430F38BF1CEB410F01D2994261
:101E100070470FB40CBC03BCFFF7C1BE10B591EA0C
:101E2000030F48BF83F000433FF5ACAD841A71EB5C
:101E3000030C07D212198CF0004C43EB0C03001B6F
:101E400061EB0C01DFF8A4E14FEA1154A4EB135C41
:101E50001EEA430F18BF9EEA445F00F0B08023EAF9
:101E60006E03524221EA0451C3EB6E0338BF5B1E7E
:101E7000DCF1200E25D322FA0CFE10EB0E0043FA03
:101E80000CFE41EB0E01CCF1200E03FA0EFE10EB1E
:101E90000E0051F10001CCF1200E29D412FA0EF2FD
:101EA00001EB0451BDE8104058BF7047401C1CBFF7
:101EB000B2F1004F704700280CBF491C20F0010010
:101EC000704712EB020E43EB030218BF4FF0010EF6
:101ED0004EEA4202ACF1200CDCF11E0E54D943FA5A
:101EE0000CFE10EB0E0051F1FF31CCF11E0ED5D5DA
:101EF0000EF1010E12FA0EFE404141EB010101EB21
:101F0000445C5FEA5C5C10D910EBDE7001EB0451BD
:101F100038BFBEF1004FBDE8104018BF7047002821
:101F20000CBF491C20F00100704730D24FEAD42C7E
:101F300011F5001124F400641BD0B1FA81F20B3AC0
:101F4000A41AA41ED2F12003914030FA03F31943DE
:101F5000904001EBCC71002C01EB0451BDE8104026
:101F6000A8BF704701F1C0414FF0000001F00041EF
:101F70007047B0FA80F310FA03F100D110BDE41AF3
:101F8000173C4805C90AE4E701EB045110BD4910AC
:101F900001EB0451BDE810404FEA300002E04FF081
:101FA000000170474A0008BF0042F8D0B2F5001F98
:101FB00028BF704701F000414FF0000070479EEAD3
:101FC000445F07D011EA5E0FBDE8104004BF002156
:101FD00000207047BDE8104070B5FFF795FE00BFC8
:101FE00040DFF63E83F00041104670470000E0FFFE
:101FF00043004FEAD30C4FEA3C0C43401FBF40075D
:102000000CF1605113F0FE4F70471CF0006F03D1CC
:1020100000200CF0004170470CF0004343EA507080
:1020200010B540EACC0000F00EF800BF00000092AE
:102030004FEA0001FFF7B6BE4FF000414FF000003D
:10204000A1F5002170470EF1020E2EF0030E5EF88E
:10205000044B244204D44FEA4102B2F17F4F11D81D
:102060004FEA4003B3F17F4F0CD80ED14FEAD07C3A
:10207000B2F17F4F0CEB4C0C0CF1020C08BF4CEB97
:10208000D17C04E04FF0080C01E04FEAD17C0CEB6E
:102090004C0324FA03F404F00704B4F1040C06D250
:1020A0000EEB840CBDE810404CF0010C6047DFE8FB
:1020B0000CF0070802024FF00040A0F5800010BDB0
:1020C0000846420018BFD2F1807288BF00F000407D
:1020D00010BD4FF04070E1EE100A7047FF2141EA59
:1020E000D050C00570470000082100080000002003
:1020F0005C000000C4010008642100085C000020AE
:10210000C4060000E001000800000000000000001C
:1021100000000000000000000000000000000000BF
:1021200000000000000000000000000000000000AF
:10213000000000000000000000000000000000009F
:10214000000000000000000000000000000000008F
:10215000000000000000010203040102030406075E
:04216000080900006A
:0400000508000229C4
:00000001FF
