:020000040800F2
:10000000800600202902000831020008330200089F
:10001000350200083702000839020008000000001D
:100020000000000000000000000000003B0200088B
:100030003D020008000000003F02000841020008E5
:10004000430200084302000843020008430200087C
:100050004302000843020008E502000843020008CA
:10006000430200084302000843020008430200085C
:10007000430200084302000843020008430200084C
:10008000430200084302000843020008430200083C
:10009000430200084302000843020008430200082C
:1000A000430200084302000843020008430200081C
:1000B00059080008430200084302000843020008F0
:1000C00043020008430200084302000843020008FC
:1000D00043020008430200084302000843020008EC
:1000E00043020008430200084302000843020008DC
:1000F00043020008430200084302000843020008CC
:100100004302000843020008C50800084302000833
:1001100043020008430200084302000843020008AB
:10012000430200084302000843020008430200089B
:10013000430200084302000843020008430200088B
:10014000430200084302000843020008430200087B
:10015000430200084302000843020008430200086B
:10016000430200084302000843020008430200085B
:10017000430200084302000843020008430200084B
:10018000430200084302000800F002F800F03CF8C7
:100190000AA090E8000C82448344AAF10107DA45E2
:1001A00001D100F031F8AFF2090EBAE80F0013F0F8
:1001B000010F18BFFB1A43F001031847E80A0000BB
:1001C000080B0000103A24BF78C878C1FAD852074B
:1001D00024BF30C830C144BF04680C6070470000C1
:1001E0000023002400250026103A28BF78C1FBD840
:1001F000520728BF30C148BF0B6070471FB500F0E1
:100200004BFD1FBD10B510BD00F031F81146FFF7D2
:10021000F5FF00F06FFC00F04FF803B4FFF7F2FFBA
:1002200003BC00F057F80000094880470948004720
:10023000FEE7FEE7FEE7FEE7FEE7FEE7FEE7FEE796
:10024000FEE7FEE704480549054A064B70470000F3
:10025000F1070008890100088000002080060020C6
:10026000800200208002002070477047704775466A
:1002700000F02CF8AE4605006946534620F0070012
:10028000854618B020B5FFF7DDFFBDE820404FF0F0
:1002900000064FF000074FF000084FF0000B21F070
:1002A0000701AC46ACE8C009ACE8C009ACE8C0093D
:1002B000ACE8C0098D46704710B50446AFF3008026
:1002C0002046BDE81040FFF7A8BF00000048704777
:1002D0002000002001491820ABBEFEE726000200E6
:1002E0007047000010B5012000F01CF870B10848FC
:1002F000006818B90121074800F0FFFA04480068B7
:10030000401C03490860012000F006F810BD000001
:1003100014000020000C00400149086070470000F4
:10032000143C014001460020034A12680A400AB109
:10033000012000E000207047143C014000212349C7
:100340008279002A3AD00A46126803689A430B461B
:100350001A600A1D126803689A430B1D1A6002791D
:1003600011440A6803681A430A60184A083212687E
:1003700003689A43154B08331A601A1D1268036804
:100380009A43124B0C331A604279102A0ED11A1F6D
:10039000126803681A430D4B08331A601A1D12685D
:1003A00003681A43094B0C331A600DE00749427980
:1003B00011440A6803681A430A6005E0027911448F
:1003C0000A6803689A430A6070470000003C0140D5
:1003D00008B506208DF8000000208DF801008DF88A
:1003E000020001208DF80300684600F0FFF808BD08
:1003F00008B51C208DF8000001208DF801000220B6
:100400008DF8020001208DF80300684600F0EEF838
:1004100032208DF8000001208DF801008DF80200D7
:100420008DF80300684600F0E1F808BDF0B50A4613
:1004300000210023002400BF3DE0012505FA01F35F
:10044000156805EA03049C4234D105684F00032671
:10045000BE40B543056015794E00B540066835438A
:1004600005601579012D02D01579022D16D1856808
:100470004F000326BE40B543856055794E00B54018
:10048000866835438560456801268E40B5434560E2
:10049000456896798E40B6B235434560C5684F00D1
:1004A0000326BE40B543C560D5794E00B540C66849
:1004B0003543C560491C1029BFD3F0BD4183704747
:1004C0000183704742694A40426170471CB501216F
:1004D000084600F0C7F800208DF804008DF80600EB
:1004E0000120009002208DF8070003208DF8050000
:1004F00069460248FFF79AFF1CBD00000000024059
:100500001CB50121880300F0CDF80021084600F059
:10051000D9F8012000908DF8060000208DF8040025
:1005200008208DF805006846FFF708FF1CBD000095
:100530001CB50121082000F095F801208DF8040079
:1005400000208DF806008DF807004FF470400090F1
:1005500002208DF8050069460148FFF767FF1CBDC2
:10056000000C02400EB50121084600F08BF8532024
:10057000ADF800000020ADF802001A4801900020FC
:10058000ADF808008DF80A0069464FF0804000F091
:10059000DBF90121880700F0B0F90122114690072C
:1005A00000F0C8F90121082000F06CF82920ADF80E
:1005B00000000020ADF802000A4801900020ADF8CC
:1005C00008008DF80A006946074800F0BDF90121CE
:1005D000054800F092F901221146034800F0AAF9FB
:1005E0000EBD00003F420F00000C004070B500211E
:1005F00000230F22C4781CB3174C246804F4E06471
:10060000C4F5E064C4F30721C1F10404E3B20A4174
:1006100044789C40E1B28478144021430C07210EB9
:100620000E4C05786155047804F01F050124AC4098
:1006300005786D11AD0005F1E025C5F8004109E030
:10064000047804F01F050124AC40054D06787611AE
:1006500045F8264070BD00000CED00E000E400E02D
:1006600080E100E029B1064A12680243044B1A6097
:1006700004E0034A12688243014B1A60704700008D
:100680003038024029B1064A12680243044B1A600E
:1006900004E0034A12688243014B1A60704700006D
:1006A0004038024029B1064A12680243044B1A60DE
:1006B00004E0034A12688243014B1A60704700004D
:1006C0004438024030B500228B071C0F0F2303FA79
:1006D00004F20B4B8C1053F824309343084C8D10CC
:1006E00044F8253023468C1053F824308C07240F0F
:1006F00000FA04F42343024C8D1044F8253030BD39
:10070000083801400CB50020019000903448006882
:1007100040F480303249086000BF3148006800F47E
:10072000003000900198401C0190009818B9019881
:10073000B0F5A04FF1D12A48006800F4003010B1A4
:100740000120009001E0002000900098012846D18F
:1007500023484030006840F0805021494031086013
:100760002048006840F440401E4908601C4808309A
:1007700000681B49083108600846006840F40040E2
:1007800008600846006840F4A05008601648091F39
:100790000860081F006840F08070091F086000BFF3
:1007A0000F48006800F000700028F9D040F2057092
:1007B0000E4908600A480830006820F00300084924
:1007C000083108600846006840F00200086000BF79
:1007D00003480830006800F00C000828F8D10CBD70
:1007E000003802400070004008544007003C0240BE
:1007F00010B51548006840F47000134908601348AC
:10080000006840F001001149086000200F490831DC
:1008100008600E4800680E4908400C4908600D4801
:10082000091D0860081F006820F48020091F086067
:10083000002006490C310860FFF764FF4FF00060AC
:1008400001498039086010BD88ED00E000380240A1
:10085000FFFFF6FE1030002410B50121880700F0DC
:1008600058F818B30121880700F044F810480068D0
:100870001049096888420BDA0F48008881B20F4896
:10088000FFF720FE0A480068401C094908600DE097
:1008900000214FF0804000F030F80748008881B216
:1008A0000648FFF70DFE00200549086010BD000056
:1008B000000000200400002010000020000C024076
:1008C0001800002010B50121084800F022F860B19E
:1008D0000121064800F00EF805480068042802DAF5
:1008E00000F056F901E000F071F810BD000C004076
:1008F00008000020CA430282704721B1028842F0FA
:100900000102028004E002884FF6FE731A40028062
:10091000704730B50246002000230024158A05EAFE
:100920000103958905EA010413B10CB1012000E02F
:10093000002030BD1AB183890B43838102E0838993
:100940008B4383817047000000220288184B984235
:100950000ED0184B98420BD0B0F1804F08D0164BF8
:10096000984205D0154B984202D0154B984204D1BD
:100970004FF68F731A404B881A43124B984207D098
:10098000114B984204D04FF6FF431A400B891A438B
:1009900002804B68C3620B880385054B984202D0E6
:1009A000044B984201D18B7A0386012383827047DE
:1009B0000000014000040140000400400008004025
:1009C000000C0040001000400014004010B500244E
:1009D00034480068002864DD32480068012804D1EA
:1009E000002030490860012407E02E4800680128F3
:1009F00003DD00202B49086002242B48006890BBCF
:100A0000012C0BD129480068401C28490860084681
:100A1000006800F08DF8254908603EE0022C3CD1CA
:100A20002248006830B101280AD002280ED00328DD
:100A300018D111E04FF480511E2000F041F811E070
:100A40004FF40051062000F03BF80BE04FF48041DA
:100A50002D2000F035F805E04FF40041232000F090
:100A60002FF800BF19E0FFE70F480068012814D1F4
:100A7000012C03D100200E4908600EE0022C0CD19D
:100A800000216007FFF739FF002007490860094887
:100A9000008881B20848FFF713FD00210748FFF7DF
:100AA0002CFF10BD14000020180000201C000020A6
:100AB0000000002010000020000C0240000C00404C
:100AC00070B504460D4607480560074804600020DD
:100AD0000649086001200649086001218007FFF7E8
:100AE0000CFF70BD1000002004000020000000205A
:100AF00018000020FFF7EAFCFFF71AFDFFF732FDB0
:100B0000FFF776FCFFF7FCFCFFF762FC0AE0064803
:100B10000068042806D10548006800F009F805209F
:100B200001490860F3E70000080000201C000020D5
:100B300010B50446032C00DD00244FF47041134827
:100B4000FFF7BCFC34B1012C0AD0022C0ED0032CD0
:100B500018D111E04FF480510C48FFF7B1FC11E0BF
:100B60004FF400510948FFF7ABFC0BE04FF4804114
:100B70000648FFF7A5FC05E04FF400410348FFF7E6
:100B80009FFC00BF00BF204610BD0000000C0240CB
:100B900010B53D48006803284FDA3C48006878B932
:100BA0004FF480413A48FFF789FC4FF480513848B0
:100BB000FFF786FC35480068401C3449086062E055
:100BC0003248006801280ED1C1033148FFF776FC96
:100BD0004FF400512E48FFF773FC2C480068401C6E
:100BE0002A4908604FE02948006802280ED1C10256
:100BF0002748FFF763FC4FF480412548FFF760FC6E
:100C000022480068401C214908603CE01F480068F9
:100C1000032838D14FF400511D48FFF74FFC4FF423
:100C200000411B48FFF74CFC00201849086016489B
:100C30000068401C1449086025E013480068032838
:100C400021D11248006850B94FF480411048FFF795
:100C500035FC0E480068401C0C49086013E00B4846
:100C6000006801280FD1C1030948FFF727FC0020C5
:100C70000649086004480068401C034908600021D8
:100C80000448FFF73AFE10BD080000200C000020C9
:100C9000000C0240000C00404FF04070E1EE100AE2
:100CA00070470000C40C0008000000202000000075
:100CB000C4010008E40C00082000002060060000C9
:100CC000E00100080000000000000000000000003B
:100CD0000000000000000000000000000000000014
:040CE0000000000010
:0400000508000229C4
:00000001FF
