:020000040800F2
:10000000800600202902000831020008330200089F
:10001000350200083702000839020008000000001D
:100020000000000000000000000000003B0200088B
:100030003D020008000000003F02000841020008E5
:10004000430200084302000843020008430200087C
:100050004302000843020008E502000843020008CA
:10006000430200084302000843020008430200085C
:10007000430200084302000843020008430200084C
:10008000430200084302000843020008430200083C
:10009000430200084302000843020008430200082C
:1000A000430200084302000843020008430200081C
:1000B0005D080008430200084302000843020008EC
:1000C00043020008430200084302000843020008FC
:1000D00043020008430200084302000843020008EC
:1000E00043020008430200084302000843020008DC
:1000F00043020008430200084302000843020008CC
:100100004302000843020008B9080008430200083F
:1001100043020008430200084302000843020008AB
:10012000430200084302000843020008430200089B
:10013000430200084302000843020008430200088B
:10014000430200084302000843020008430200087B
:10015000430200084302000843020008430200086B
:10016000430200084302000843020008430200085B
:10017000430200084302000843020008430200084B
:10018000430200084302000800F002F800F03CF8C7
:100190000AA090E8000C82448344AAF10107DA45E2
:1001A00001D100F031F8AFF2090EBAE80F0013F0F8
:1001B000010F18BFFB1A43F001031847F80A0000AB
:1001C000180B0000103A24BF78C878C1FAD852073B
:1001D00024BF30C830C144BF04680C6070470000C1
:1001E0000023002400250026103A28BF78C1FBD840
:1001F000520728BF30C148BF0B6070471FB500F0E1
:1002000053FD1FBD10B510BD00F031F81146FFF7CA
:10021000F5FF00F0E5FC00F04FF803B4FFF7F2FF44
:1002200003BC00F057F80000094880470948004720
:10023000FEE7FEE7FEE7FEE7FEE7FEE7FEE7FEE796
:10024000FEE7FEE704480549054A064B70470000F3
:10025000F5070008890100088000002080060020C2
:10026000800200208002002070477047704775466A
:1002700000F02CF8AE4605006946534620F0070012
:10028000854618B020B5FFF7DDFFBDE820404FF0F0
:1002900000064FF000074FF000084FF0000B21F070
:1002A0000701AC46ACE8C009ACE8C009ACE8C0093D
:1002B000ACE8C0098D46704710B50446AFF3008026
:1002C0002046BDE81040FFF7A8BF00000048704777
:1002D0002000002001491820ABBEFEE726000200E6
:1002E0007047000010B5012000F012F838B1044842
:1002F0000068401C02490860012000F003F810BDAE
:10030000140000200149086070470000143C0140BF
:1003100001460020034A12680A400AB1012000E0A9
:1003200000207047143C0140002123498279002AB3
:100330003AD00A46126803689A430B461A600A1DAF
:10034000126803689A430B1D1A60027911440A6807
:1003500003681A430A60184A0832126803689A430D
:10036000154B08331A601A1D126803689A43124B22
:100370000C331A604279102A0ED11A1F12680368D2
:100380001A430D4B08331A601A1D126803681A438A
:10039000094B0C331A600DE00749427911440A6891
:1003A00003681A430A6005E0027911440A68036889
:1003B0009A430A6070470000003C014008B50620DF
:1003C0008DF8000000208DF801008DF8020001205A
:1003D0008DF80300684600F00BF908BD08B51C2035
:1003E0008DF8000001208DF8010002208DF8020038
:1003F00001208DF80300684600F0FAF832208DF8ED
:10040000000001208DF801008DF802008DF8030036
:10041000684600F0EDF808BDF0B50A46002100235B
:10042000002400BF3DE0012505FA01F3156805EA47
:1004300003049C4234D105684F000326BE40B543F7
:10044000056015794E00B54006683543056015799D
:10045000012D02D01579022D16D185684F00032693
:10046000BE40B543856055794E00B540866835433A
:100470008560456801268E40B5434560456896799C
:100480008E40B6B235434560C5684F000326BE4076
:10049000B543C560D5794E00B540C6683543C560E3
:1004A000491C1029BFD3F0BD0246002013690B4040
:1004B0000BB1012000E000207047418370470183A9
:1004C000704742694A404261704700001CB50121F3
:1004D000084600F0C9F800208DF804008DF80600E9
:1004E0000120009002208DF8070003208DF8050000
:1004F00069460248FFF790FF1CBD00000000024063
:100500001CB50121880300F0CFF80021084600F057
:10051000DBF8012000908DF8060000208DF8040023
:1005200008208DF805006846FFF7FEFE1CBD0000A0
:100530001CB50121082000F097F801208DF8040077
:1005400000208DF806008DF807004FF470400090F1
:1005500002208DF8050069460148FFF75DFF1CBDCC
:10056000000C02400EB50121084600F08DF843F260
:10057000AF60ADF800000020ADF8020040F2CF708F
:1005800001900020ADF808008DF80A0069464FF090
:10059000804000F049FA0121880700F01EFA01228C
:1005A0001146900700F036FA0121082000F06CF89F
:1005B00045F20720ADF800000020ADF8020040F23F
:1005C000F31001900020ADF808008DF80A0069468C
:1005D000064800F029FA0121044800F0FEF9012242
:1005E0001146024800F016FA0EBD0000000C004053
:1005F00070B5002100230F22C4781CB3174C246867
:1006000004F4E064C4F5E064C4F30721C1F1040418
:10061000E3B20A4144789C40E1B28478144021431B
:100620000C07210E0E4C05786155047804F01F0567
:100630000124AC4005786D11AD0005F1E025C5F849
:10064000004109E0047804F01F050124AC40054D89
:100650000678761145F8264070BD00000CED00E0EC
:1006600000E400E080E100E029B1064A126802439C
:10067000044B1A6004E0034A12688243014B1A607B
:10068000704700003038024029B1064A1268024320
:10069000044B1A6004E0034A12688243014B1A605B
:1006A000704700004038024029B1064A12680243F0
:1006B000044B1A6004E0034A12688243014B1A603B
:1006C000704700004438024030B500228B071C0FF1
:1006D0000F2303FA04F20B4B8C1053F8243093438E
:1006E000084C8D1044F8253023468C1053F82430E4
:1006F0008C07240F00FA04F42343024C8D1044F8B5
:10070000253030BD083801400CB500200190009024
:100710003448006840F480303249086000BF3148F6
:10072000006800F4003000900198401C019000988F
:1007300018B90198B0F5A04FF1D12A48006800F42B
:10074000003010B10120009001E0002000900098DE
:10075000012846D123484030006840F080502149AC
:10076000403108602048006840F440401E4908605D
:100770001C48083000681B490831086008460068BA
:1007800040F4004008600846006840F4A05008604B
:100790001648091F0860081F006840F08070091F94
:1007A000086000BF0F48006800F000700028F9D012
:1007B00040F205700E4908600A480830006820F0D1
:1007C00003000849083108600846006840F002004C
:1007D000086000BF03480830006800F00C000828DB
:1007E000F8D10CBD00380240007000401954400799
:1007F000003C024010B51548006840F470001349F1
:1008000008601348006840F00100114908600020AA
:100810000F49083108600E4800680E4908400C492D
:1008200008600D48091D0860081F006820F480203A
:10083000091F0860002006490C310860FFF764FFBB
:100840004FF0006001498039086010BD88ED00E07C
:1008500000380240FFFFF6FE1030002410B50121E1
:10086000880700F0C6F8F0B10121880700F0B2F85F
:100870000D4800680D49096888420BDA0C48008869
:1008800081B20C48FFF71DFE07480068401C06496E
:10089000086008E00448006804490968884202D1F9
:1008A0003C200149086010BD000000200400002029
:1008B00010000020000C024010B50121414800F05A
:1008C00098F800287CD001213E4800F083F83E488B
:1008D000006803284FDA3D48006878B94FF480413A
:1008E0003B48FFF7EAFD4FF480513948FFF7E7FD39
:1008F00036480068401C3549086061E033480068AC
:1009000001280ED1C1033248FFF7D7FD4FF4005143
:100910002F48FFF7D4FD2D480068401C2B49086084
:100920004EE02A48006802280ED1C1022848FFF78D
:10093000C4FD4FF480412648FFF7C1FD23480068FD
:10094000401C224908603BE020480068032837D15A
:100950004FF400511E48FFF7B0FD4FF400411C4812
:10096000FFF7ADFD00201949086017480068401CDA
:100970001549086024E01448006803281ED1134874
:10098000006850B94FF480411148FFF796FD0F48B9
:100990000068401C0D49086012E00C4800680128FE
:1009A0000ED1C1030A48FFF788FD002007490860FF
:1009B00005480068401C0449086001E000F076F832
:1009C00010BD0000000C0040080000200C000020BA
:1009D000000C0240CA430282704721B1028842F0F3
:1009E0000102028004E002884FF6FE731A40028082
:1009F000704730B50246002000230024158A05EA1E
:100A00000103958905EA010413B10CB1012000E04E
:100A1000002030BD1AB183890B43838102E08389B2
:100A20008B4383817047000000220288184B984254
:100A30000ED0184B98420BD0B0F1804F08D0164B17
:100A4000984205D0154B984202D0154B984204D1DC
:100A50004FF68F731A404B881A43124B984207D0B7
:100A6000114B984204D04FF6FF431A400B891A43AA
:100A700002804B68C3620B880385054B984202D005
:100A8000044B984201D18B7A0386012383827047FD
:100A90000000014000040140000400400008004044
:100AA000000C0040001000400014004010B500246D
:100AB0004448006800282CDD01214348FFF7F4FC7E
:100AC000012804D100203F490860032410E03D487C
:100AD0000068012804D100203A490860012407E099
:100AE00038480068012803DD0020364908600224E8
:100AF00036480068002852D1012C0BD134480068D8
:100B0000401C334908600846006800F09DF83049F1
:100B1000086056E0022C54D12D48006830B10128FD
:100B200012D002281ED0032838D129E04FF480507B
:100B300028490860032028490860012023490860EB
:100B400000202649086029E04FF400502149086040
:100B500004202149086001201C49086000201F4929
:100B600008601BE04FF480401A49086005201A49CC
:100B700008600120154908600020184908600DE050
:100B80004FF40040134908600A201349086001200F
:100B90000E49086000201149086000BF11E00B48B1
:100BA000006801280DD1012C03D100200B490860F9
:100BB00007E0022C05D164200849086000200349A1
:100BC000086010BD14000020000002401800002042
:100BD0001C00002010000020040000200000002065
:100BE00000BF00BF00BF00BF00BF00BF00BF00BF0D
:100BF00000BF00BF0124FFF769FCFFF799FCFFF776
:100C0000B1FCFFF7EBFBFFF77BFCFFF7D7FB002006
:100C10000A49086011E00948006804280DD1012C38
:100C200003D007480068642807D10648006800F030
:100C30000BF80024632002490860ECE7080000205C
:100C4000000000201C00002010B50446032C00DD2D
:100C500000244FF470411348FFF72FFC34B1012CEE
:100C60000AD0022C0ED0032C18D111E04FF4805181
:100C70000C48FFF724FC11E04FF400510948FFF73E
:100C80001EFC0BE04FF480410648FFF718FC05E01E
:100C90004FF400410348FFF712FC00BF00BF20469D
:100CA00010BD0000000C02404FF04070E1EE100A51
:100CB00070470000D40C0008000000202000000055
:100CC000C4010008F40C00082000002060060000A9
:100CD000E0010008460000003C00000005000000A4
:100CE0000000000000000000000000000000000004
:040CF0000000000000
:0400000508000229C4
:00000001FF
