:020000040800F2
:10000000800600202902000831020008330200089F
:10001000350200083702000839020008000000001D
:100020000000000000000000000000003B0200088B
:100030003D020008000000003F02000841020008E5
:10004000430200084302000843020008430200087C
:100050004302000843020008E502000843020008CA
:10006000430200084302000843020008430200085C
:10007000430200084302000843020008430200084C
:10008000430200084302000843020008430200083C
:10009000430200084302000843020008430200082C
:1000A000430200084302000843020008430200081C
:1000B00055080008430200084302000843020008F4
:1000C00043020008430200084302000843020008FC
:1000D00043020008430200084302000843020008EC
:1000E00043020008430200084302000843020008DC
:1000F00043020008430200084302000843020008CC
:100100004302000843020008A9080008430200084F
:1001100043020008430200084302000843020008AB
:10012000430200084302000843020008430200089B
:10013000430200084302000843020008430200088B
:10014000430200084302000843020008430200087B
:10015000430200084302000843020008430200086B
:10016000430200084302000843020008430200085B
:10017000430200084302000843020008430200084B
:10018000430200084302000800F002F800F03CF8C7
:100190000AA090E8000C82448344AAF10107DA45E2
:1001A00001D100F031F8AFF2090EBAE80F0013F0F8
:1001B000010F18BFFB1A43F001031847C00A0000E3
:1001C000E00A0000103A24BF78C878C1FAD8520774
:1001D00024BF30C830C144BF04680C6070470000C1
:1001E0000023002400250026103A28BF78C1FBD840
:1001F000520728BF30C148BF0B6070471FB500F0E1
:1002000037FD1FBD10B510BD00F031F81146FFF7E6
:10021000F5FF00F057FC00F04FF803B4FFF7F2FFD2
:1002200003BC00F057F80000094880470948004720
:10023000FEE7FEE7FEE7FEE7FEE7FEE7FEE7FEE796
:10024000FEE7FEE704480549054A064B70470000F3
:10025000ED070008890100088000002080060020CA
:10026000800200208002002070477047704775466A
:1002700000F02CF8AE4605006946534620F0070012
:10028000854618B020B5FFF7DDFFBDE820404FF0F0
:1002900000064FF000074FF000084FF0000B21F070
:1002A0000701AC46ACE8C009ACE8C009ACE8C0093D
:1002B000ACE8C0098D46704710B50446AFF3008026
:1002C0002046BDE81040FFF7A8BF00000048704777
:1002D0002000002001491820ABBEFEE726000200E6
:1002E0007047000010B5012000F018F858B106481A
:1002F0000068401C04490860012000F009F8012151
:10030000024800F0ECFA10BD14000020000C004080
:100310000149086070470000143C0140014600207C
:10032000034A12680A400AB1012000E00020704729
:10033000143C0140002123498279002A3AD00A4620
:10034000126803689A430B461A600A1D1268036814
:100350009A430B1D1A60027911440A6803681A4314
:100360000A60184A0832126803689A43154B08332A
:100370001A601A1D126803689A43124B0C331A60F4
:100380004279102A0ED11A1F126803681A430D4BC6
:1003900008331A601A1D126803681A43094B0C339C
:1003A0001A600DE00749427911440A6803681A434C
:1003B0000A6005E0027911440A6803689A430A60FA
:1003C00070470000003C014008B506208DF8000091
:1003D00000208DF801008DF8020001208DF8030047
:1003E000684600F001F908BD08B51C208DF8000032
:1003F00001208DF8010002208DF8020001208DF807
:100400000300684600F0F0F832208DF8000001206B
:100410008DF801008DF802008DF80300684600F0A9
:10042000E3F808BDF0B50A4600210023002400BF10
:100430003DE0012505FA01F3156805EA03049C4235
:1004400034D105684F000326BE40B54305601579D9
:100450004E00B5400668354305601579012D02D080
:100460001579022D16D185684F000326BE40B5438D
:10047000856055794E00B54086683543856045688E
:1004800001268E40B5434560456896798E40B6B2E8
:1004900035434560C5684F000326BE40B543C5607F
:1004A000D5794E00B540C6683543C560491C102952
:1004B000BFD3F0BD418370470183704742694A4012
:1004C000426170471CB50121084600F0C9F80020C0
:1004D0008DF804008DF806000120009002208DF8B0
:1004E000070003208DF8050069460248FFF79AFFD0
:1004F0001CBD0000000002401CB50121880300F073
:10050000CFF80021084600F0DBF8012000908DF8BC
:10051000060000208DF8040008208DF805006846CC
:10052000FFF708FF1CBD00001CB50121082000F0EA
:1005300097F801208DF8040000208DF806008DF852
:1005400007004FF47040009002208DF805006946C6
:100550000148FFF767FF1CBD000C02400EB50121EA
:10056000084600F08DF843F2AF60ADF800000020BF
:10057000ADF8020040F2CF7001900020ADF8080005
:100580008DF80A0069464FF0804000F0CFF9012154
:10059000880700F0A4F901221146900700F0BCF989
:1005A0000121082000F06CF845F20720ADF80000AA
:1005B0000020ADF8020040F2F31001900020ADF8E9
:1005C00008008DF80A006946064800F0AFF90121DD
:1005D000044800F084F901221146024800F09CF919
:1005E0000EBD0000000C004070B5002100230F225A
:1005F000C4781CB3174C246804F4E064C4F5E064C8
:10060000C4F30721C1F10404E3B20A4144789C40D9
:10061000E1B28478144021430C07210E0E4C05787A
:100620006155047804F01F050124AC4005786D1174
:10063000AD0005F1E025C5F8004109E0047804F0BB
:100640001F050124AC40054D0678761145F826407B
:1006500070BD00000CED00E000E400E080E100E08F
:1006600029B1064A12680243044B1A6004E0034AA7
:1006700012688243014B1A60704700003038024014
:1006800029B1064A12680243044B1A6004E0034A87
:1006900012688243014B1A607047000040380240E4
:1006A00029B1064A12680243044B1A6004E0034A67
:1006B00012688243014B1A607047000044380240C0
:1006C00030B500228B071C0F0F2303FA04F20B4BEB
:1006D0008C1053F824309343084C8D1044F8253087
:1006E00023468C1053F824308C07240F00FA04F4AE
:1006F0002343024C8D1044F8253030BD08380140AA
:100700000CB50020019000903448006840F480301F
:100710003249086000BF3148006800F400300090A2
:100720000198401C0190009818B90198B0F5A04FAD
:10073000F1D12A48006800F4003010B10120009087
:1007400001E0002000900098012846D12348403065
:10075000006840F08050214940310860204800681E
:1007600040F440401E4908601C48083000681B499E
:10077000083108600846006840F4004008600846F8
:10078000006840F4A05008601648091F0860081F60
:10079000006840F08070091F086000BF0F480068C3
:1007A00000F000700028F9D040F205700E49086092
:1007B0000A480830006820F0030008490831086042
:1007C0000846006840F00200086000BF0348083097
:1007D000006800F00C000828F8D10CBD0038024079
:1007E0000070004019544007003C024010B5154805
:1007F000006840F47000134908601348006840F036
:1008000001001149086000200F49083108600E48B6
:1008100000680E4908400C4908600D48091D086031
:10082000081F006820F48020091F08600020064986
:100830000C310860FFF764FF4FF000600149803918
:10084000086010BD88ED00E000380240FFFFF6FEB2
:100850001030002410B50121880700F04CF8D0B109
:100860000121880700F038F80B4800680B49096837
:1008700088420BDA0A48008881B20A48FFF71EFE58
:1008800005480068401C0449086004E000214FF05E
:10089000804000F024F810BD00000020040000207B
:1008A00010000020000C024010B50121084800F0A3
:1008B00022F860B10121064800F00EF805480068F2
:1008C000042802DA00F050F901E000F071F810BDE0
:1008D000000C004008000020CA430282704721B18A
:1008E000028842F00102028004E002884FF6FE73A3
:1008F0001A400280704730B50246002000230024D1
:10090000158A05EA0103958905EA010413B10CB1C2
:10091000012000E0002030BD1AB183890B438381A0
:1009200002E083898B4383817047000000220288A4
:10093000184B98420ED0184B98420BD0B0F1804F14
:1009400008D0164B984205D0154B984202D0154B53
:10095000984204D14FF68F731A404B881A43124BBA
:10096000984207D0114B984204D04FF6FF431A40EB
:100970000B891A4302804B68C3620B880385054BC1
:10098000984202D0044B984201D18B7A038601230E
:1009900083827047000001400004014000040040D1
:1009A00000080040000C004000100040001400400F
:1009B00010B500243148006800285EDD2F4800682B
:1009C000012804D100202D490860012407E02B48AC
:1009D0000068012803DD0020284908600224284817
:1009E000006890BB012C0BD126480068401C2549AB
:1009F00008600846006800F087F82249086038E07F
:100A0000022C36D11F48006830B101280AD00228D4
:100A10000ED0032818D111E04FF480511E2000F0B1
:100A200037F811E04FF40051282000F031F80BE0C6
:100A30004FF480412D2000F02BF805E04FF40041E9
:100A4000232000F025F800BF13E0FFE70C48006802
:100A500001280ED1012C03D100200B49086008E0C9
:100A6000022C06D100216007FFF739FF002004495E
:100A7000086000210548FFF732FF10BD1400002078
:100A8000180000201C00002000000020000C004086
:100A900070B504460D46074805600748046000200D
:100AA0000649086001200649086001218007FFF718
:100AB00016FF70BD10000020040000200000002080
:100AC0001800002000BFFFF7FDFCFFF72DFDFFF72A
:100AD00045FDFFF789FCFFF70FFDFFF775FC0020D0
:100AE000074908600AE006480068042806D105485E
:100AF000006800F009F8052001490860F3E70000EC
:100B0000080000201C00002010B50446032C00DD66
:100B100000244FF470411348FFF7CCFC34B1012C92
:100B20000AD0022C0ED0032C18D111E04FF48051C2
:100B30000C48FFF7C1FC11E04FF400510948FFF7E2
:100B4000BBFC0BE04FF480410648FFF7B5FC05E025
:100B50004FF400410348FFF7AFFC00BF00BF204641
:100B600010BD0000000C024010B53D48006803288D
:100B70004FDA3C48006878B94FF480413A48FFF7B3
:100B800099FC4FF480513848FFF796FC35480068CF
:100B9000401C3449086062E03248006801280ED1E8
:100BA000C1033148FFF786FC4FF400512E48FFF790
:100BB00083FC2C480068401C2A4908604FE0294803
:100BC000006802280ED1C1022748FFF773FC4FF4DA
:100BD00080412548FFF770FC22480068401C2149ED
:100BE00008603CE01F480068032838D14FF40051EA
:100BF0001D48FFF75FFC4FF400411B48FFF75CFC0A
:100C000000201849086016480068401C1449086014
:100C100025E013480068032821D11248006850B924
:100C20004FF480411048FFF745FC0E480068401C17
:100C30000C49086013E00B48006801280FD1C1037C
:100C40000948FFF737FC002006490860044800689F
:100C5000401C0349086000210448FFF740FE10BD16
:100C6000080000200C000020000C0240000C004096
:100C70004FF04070E1EE100A704700009C0C000835
:100C80000000002020000000C4010008BC0C000887
:100C90002000002060060000E0010008460000007F
:100CA0003C00000005000000000000000000000003
:0C0CB00000000000000000000000000038
:0400000508000229C4
:00000001FF
