:020000040800F2
:10000000800600202902000831020008330200089F
:10001000350200083702000839020008000000001D
:100020000000000000000000000000003B0200088B
:100030003D020008000000003F020008B50400086F
:10004000430200084302000843020008430200087C
:10005000430200084302000843020008430200086C
:10006000430200084302000843020008430200085C
:10007000430200084302000843020008430200084C
:10008000430200084302000843020008430200083C
:10009000430200084302000843020008430200082C
:1000A000430200084302000843020008430200081C
:1000B000430200084302000843020008430200080C
:1000C00043020008430200084302000843020008FC
:1000D00043020008430200084302000843020008EC
:1000E00043020008430200084302000843020008DC
:1000F00043020008430200084302000843020008CC
:1001000043020008430200084302000843020008BB
:1001100043020008430200084302000843020008AB
:10012000430200084302000843020008430200089B
:10013000430200084302000843020008430200088B
:10014000430200084302000843020008430200087B
:10015000430200084302000843020008430200086B
:10016000430200084302000843020008430200085B
:10017000430200084302000843020008430200084B
:10018000430200084302000800F002F800F03CF8C7
:100190000AA090E8000C82448344AAF10107DA45E2
:1001A00001D100F031F8AFF2090EBAE80F0013F0F8
:1001B000010F18BFFB1A43F0010318474C0700005A
:1001C0006C070000103A24BF78C878C1FAD85207EB
:1001D00024BF30C830C144BF04680C6070470000C1
:1001E0000023002400250026103A28BF78C1FBD840
:1001F000520728BF30C148BF0B6070471FB500F0E1
:100200007DFB1FBD10B510BD00F031F81146FFF7A2
:10021000F5FF00F045FA00F04FF803B4FFF7F2FFE6
:1002200003BC00F057F80000094880470948004720
:10023000FEE7FEE7FEE7FEE7FEE7FEE7FEE7FEE796
:10024000FEE7FEE704480549054A064B70470000F3
:100250008505000889010008800000208006002034
:10026000800200208002002070477047704775466A
:1002700000F02CF8AE4605006946534620F0070012
:10028000854618B020B5FFF7DDFFBDE820404FF0F0
:1002900000064FF000074FF000084FF0000B21F070
:1002A0000701AC46ACE8C009ACE8C009ACE8C0093D
:1002B000ACE8C0098D46704710B50446AFF3008026
:1002C0002046BDE81040FFF7A8BF00000048704777
:1002D0001C00002001491820ABBEFEE726000200EA
:1002E00070470000044A116800BF034A1268521A9E
:1002F0008242FAD37047000000000020F0B50A46A1
:1003000000210023002400BF3DE0012505FA01F390
:10031000156805EA03049C4234D105684F000326A2
:10032000BE40B543056015794E00B54006683543BB
:1003300005601579012D02D01579022D16D1856839
:100340004F000326BE40B543856055794E00B54049
:10035000866835438560456801268E40B543456013
:10036000456896798E40B6B235434560C5684F0002
:100370000326BE40B543C560D5794E00B540C6687A
:100380003543C560491C1029BFD3F0BD024600208B
:1003900013690B400BB1012000E00020704741833E
:1003A000704701837047000029B1064A1268024372
:1003B000044B1A6004E0034A12688243014B1A603E
:1003C00070470000303802400CB5002001900090CA
:1003D0003448006840F480303249086000BF31483A
:1003E000006800F4003000900198401C01900098D3
:1003F00018B90198B0F5A04FF1D12A48006800F46F
:10040000003010B10120009001E000200090009821
:10041000012846D123484030006840F080502149EF
:10042000403108602048006840F440401E490860A0
:100430001C48083000681B490831086008460068FD
:1004400040F4004008600846006840F4A05008608E
:100450001648091F0860081F006840F08070091FD7
:10046000086000BF0F48006800F000700028F9D055
:1004700040F205700E4908600A480830006820F014
:1004800003000849083108600846006840F002008F
:10049000086000BF03480830006800F00C0008281E
:1004A000F8D10CBD003802400070004019544007DC
:1004B000003C024002480068401C01490860704747
:1004C0000000002070B50020002202230024022139
:1004D000274D2D6805F00C0020B1042806D008280F
:1004E00034D107E0234D244E356033E0234D224EB6
:1004F00035602FE01E4D2D1F2D68C5F380541C4D17
:100500002D1F2D6805F03F0154B11C4DB5FBF1F5D1
:10051000174E361F3668C6F3881605FB06F209E04B
:10052000144DB5FBF1F5124E361F3668C6F388162A
:1005300005FB06F20E4D2D1F2D68C5F301456D1C00
:100540006B00B2FBF3F50C4E356003E0094D0A4E2B
:10055000356000BF00BF064D2D68C5F30315084E7A
:10056000705D054D2D68C540034E356070BD0000BF
:10057000083802400024F4000800002000127A002D
:100580000C00002010B51548006840F470001349B5
:1005900008601348006840F001001149086000201D
:1005A0000F49083108600E4800680E4908400C49A0
:1005B00008600D48091D0860081F006820F48020AD
:1005C000091F0860002006490C310860FFF7FCFE97
:1005D0004FF0006001498039086010BD88ED00E0EF
:1005E00000380240FFFFF6FE103000242DE9F041F4
:1005F00004460D46002600271BE0A9B20F48FFF76E
:10060000D0FEFA20FFF76EFEA9B20C48FFF7C7FE36
:1006100000F016F8064626B940F2EE20FFF762FE1B
:1006200006E0012E01D1B71E02E0022E00D12746BE
:100630007F1CA742E1DBBDE8F0810000000C024016
:100640002DE9F041002600271348D0F80080012151
:100650001248FFF79BFE0446012C19D10DE02546F8
:1006600001210E48FFF792FE044604B97F1C25B90C
:10067000012C02D1962F00DD022607480068A0EB6E
:10068000080040F2EE218842E9D3022E00D0012674
:100690003046BDE8F081000000000020000002406C
:1006A00086B000244FF480594FF400567700B5000F
:1006B0004FF0030A4FF0040B052003900620029030
:1006C0004FF00008FFF7FEFE4A4800684FF47A72C8
:1006D000B0FBF2F1481EB0F1807F01D3012020E091
:1006E000481E4FF0E022506150170F22002806DB11
:1006F00013074FEA136C404B03F800C009E01307DF
:100700004FEA136E3D4B00F00F0CACF1040C03F8F4
:100710000CE000BF00204FF0E02290610720106144
:10072000002008B100BFFEE701210820FFF73CFED2
:1007300001210846FFF738FE01208DF81400002043
:100740008DF816008DF817004FF4704004900220C9
:100750008DF8150004A92A48FFF7D0FD00208DF878
:1007600014008DF816000120049002208DF8170067
:100770008DF8150004A92348FFF7C0FD00F07CF8B0
:1007800036E03B46324649462046009500F03CF8AC
:10079000FFF756FF8046B8F1010F09D1641C3B46B4
:1007A000324649462046009500F02EF804461FE0E8
:1007B000B8F1020F1CD134B1012C09D0022C0CD09D
:1007C000032C14D10EE049465046FFF70FFF0EE010
:1007D00031465846FFF70AFF09E039460398FFF70C
:1007E00005FF04E029460298FFF700FF00BF00BFA5
:1007F000C7E700000800002000E400E018ED00E07A
:10080000000C0240000002402DE9F04104460D4674
:1008100016461F46DDF81880032C00DD002445EA4B
:100820000600384340EA080081B21248FFF7B7FDDE
:1008300034B1012C09D0022C0CD0032C15D10EE0C0
:10084000A9B20C48FFF7ADFD0FE0B1B20948FFF7C0
:10085000A8FD0AE0B9B20748FFF7A3FD05E01FFABB
:1008600088F10448FFF79DFD00BF00BF2046BDE8AA
:10087000F0810000000C024010B5002434E04FF479
:1008800080411D48FFF78BFD4FF480511A48FFF758
:1008900088FDFA20FFF726FD4FF400411648FFF7C8
:1008A0007EFD4FF400511448FFF77BFDFA20FFF75F
:1008B00019FD4FF480511048FFF771FD4FF480414E
:1008C0000D48FFF76EFDFA20FFF70CFD4FF40051C5
:1008D0000948FFF764FD4FF400410748FFF761FD49
:1008E000FA20FFF7FFFC641C032CC8DB4FF47041B7
:1008F0000148FFF754FD10BD000C02404FF040705E
:10090000E1EE100A704700002809000800000020EE
:100910001C000000C4010008440900081C0000205D
:1009200064060000E00100080000000080380100BB
:10093000007A030A00000000000000000102030426
:040940000607080995
:0400000508000229C4
:00000001FF
