:020000040800F2
:10000000100700202902000831020008330200080E
:10001000350200083702000839020008000000001D
:100020000000000000000000000000003B0200088B
:100030003D020008000000003F02000841020008E5
:10004000430200084302000843020008430200087C
:100050004302000843020008E502000843020008CA
:10006000430200084302000843020008430200085C
:10007000430200084302000843020008430200084C
:10008000430200084302000843020008430200083C
:10009000430200084302000843020008430200082C
:1000A000430200084302000843020008430200081C
:1000B000B50E00084302000843020008430200088E
:1000C00043020008430200084302000843020008FC
:1000D00043020008430200084302000843020008EC
:1000E00043020008430200084302000843020008DC
:1000F00043020008430200084302000843020008CC
:100100004302000843020008250F000843020008CC
:1001100043020008430200084302000843020008AB
:10012000430200084302000843020008430200089B
:10013000430200084302000843020008430200088B
:10014000430200084302000843020008430200087B
:10015000430200084302000843020008430200086B
:10016000430200084302000843020008430200085B
:10017000430200084302000843020008430200084B
:10018000430200084302000800F002F800F03CF8C7
:100190000AA090E8000C82448344AAF10107DA45E2
:1001A00001D100F031F8AFF2090EBAE80F0013F0F8
:1001B000010F18BFFB1A43F001031847041F00008A
:1001C000241F0000103A24BF78C878C1FAD852071B
:1001D00024BF30C830C144BF04680C6070470000C1
:1001E0000023002400250026103A28BF78C1FBD840
:1001F000520728BF30C148BF0B6070471FB501F0E0
:1002000054FF1FBD10B510BD00F031F81146FFF7C7
:10021000F5FF01F035F900F04FF803B4FFF7F2FFF6
:1002200003BC00F057F80000094880470948004720
:10023000FEE7FEE7FEE7FEE7FEE7FEE7FEE7FEE796
:10024000FEE7FEE704480549054A064B70470000F3
:100250004D0E000889010008100100201007002041
:100260001003002010030020704770477047754648
:1002700000F02CF8AE4605006946534620F0070012
:10028000854618B020B5FFF7DDFFBDE820404FF0F0
:1002900000064FF000074FF000084FF0000B21F070
:1002A0000701AC46ACE8C009ACE8C009ACE8C0093D
:1002B000ACE8C0098D46704710B50446AFF3008026
:1002C0002046BDE81040FFF7A8BF00000048704777
:1002D000B000002001491820ABBEFEE72600020056
:1002E0007047000010B5012000F01CF870B10848FC
:1002F000006818B90121074800F02FFE0448006883
:10030000401C03490860012000F006F810BD000001
:1003100014000020000C00400149086070470000F4
:10032000143C014001460020034A12680A400AB109
:10033000012000E000207047143C014000212349C7
:100340008279002A3AD00A46126803689A430B461B
:100350001A600A1D126803689A430B1D1A6002791D
:1003600011440A6803681A430A60184A083212687E
:1003700003689A43154B08331A601A1D1268036804
:100380009A43124B0C331A604279102A0ED11A1F6D
:10039000126803681A430D4B08331A601A1D12685D
:1003A00003681A43094B0C331A600DE00749427980
:1003B00011440A6803681A430A6005E0027911448F
:1003C0000A6803689A430A6070470000003C0140D5
:1003D00008B506208DF8000001208DF801000020EE
:1003E0008DF8020001208DF80300684600F02EFB16
:1003F00008BD00001CB54FF4C06101F00702154BA9
:1004000018684FF6FF031840134B034343EA0220DA
:10041000104B186000BF1C208DF8040002208DF8DE
:10042000050000208DF8060001208DF8070001A8C6
:1004300000F00CFB32208DF8000003208DF8010045
:1004400000208DF8020001208DF80300684600F0BE
:10045000FDFA1CBD0CED00E00000FA05F0B50A46FF
:1004600000210023002400BF3DE0012505FA01F32F
:10047000156805EA03049C4234D105684F00032641
:10048000BE40B543056015794E00B540066835435A
:1004900005601579012D02D01579022D16D18568D8
:1004A0004F000326BE40B543856055794E00B540E8
:1004B000866835438560456801268E40B5434560B2
:1004C000456896798E40B6B235434560C5684F00A1
:1004D0000326BE40B543C560D5794E00B540C66819
:1004E0003543C560491C1029BFD3F0BDF0B50023CA
:1004F00000244D07ED0E02FA05F3CE1000F12005A1
:1005000055F826504E07F70E0F26BE40B543CF10C4
:1005100000F1200646F82750CE1000F1200555F8CE
:10052000265045EA0304CE1000F1200545F8264088
:10053000F0BD41837047018370474FF6FF71016042
:100540000021017141718171C171704742694A4056
:100550004261704721B1028842F48062028004E067
:1005600002884FF6FF331A400280704770B502468A
:100570000024002500230020958A138B1B0445EAE4
:10058000030626F07F4404EA01068E4201D10120D1
:1005900000E0002070BD21B1028842F0010202801B
:1005A00004E002884FF6FE731A4002807047000094
:1005B00010B504461348844209D10121480500F0D2
:1005C000A1FA00214FF4001000F09CFA18E00E4848
:1005D000844209D10121880500F094FA00214FF4EA
:1005E000800000F08FFA0BE00848844208D1012116
:1005F000C80500F087FA00214FF4000000F082FAED
:1006000010BD00000054004000580040005C004055
:1006100021B1028842F48072028004E002884FF621
:10062000FF631A400280704721B1028842F40072D1
:10063000028004E002884FF6FF531A4002807047A0
:100640000CB50246002000230193009300920B0F8B
:10065000019321F07F41019B1BB1009B1433009358
:1006600003E0090C009B18330093009B1B680B40B0
:100670000BB1012000E000200CBD00002DE9FF4778
:1006800004460D460026B1460427DFF8CC80A68834
:100690004FF6C0700640684600F064FADDF8088046
:1006A0002E48B8FBF0F01FFA80F946EA0906A6804A
:1006B00020884FF6FE7108402080002628492868CF
:1006C00088420CD828684000B8FBF0F087B2042FAD
:1006D00000DA04273E4309F10100208427E0E8887E
:1006E0004BF6FF71884206D1286800EB4000B8FB4A
:1006F000F0F087B209E0286800EBC00101EB0010C0
:10070000B8FBF0F087B247F48047C7F30B0008B995
:1007100047F0010747F4004006434FF4967009FB89
:1007200000F04FF47A7190FBF1F0401C2084A68316
:10073000208840F00100208026884FF6F5300640E2
:10074000A8886989084306432680A889298908431F
:100750002081BDE8FF87000000127A0040420F00B0
:10076000A08601000146088AC0B2704712B141F06C
:10077000010101E001F0FE01018270470182704732
:1007800021B1828B42F48062828304E0828B4FF637
:10079000FF331A40828370472DE9F04F0025022372
:1007A0000024012700220026944690469146B0F886
:1007B0001CA04FF2400B0AEA0B0AA0F81CA04FF055
:1007C000020AA0F820A0858BD1F808A0BAF1020F88
:1007D00001D100BF6CE0B1F804A0BAF1000F01D163
:1007E000012700E00227DFF810A1DAF800A00AF4E0
:1007F000000ABAF1000F09D0DFF8FCA0DAF800A077
:100800002AF4000ADFF8F0B0CBF800A0DFF8E8A087
:100810000AF17C0ADAF800A0CAF38818DFF8D8A039
:100820000AF17C0ADAF800A0CAF30279DFF8C8A05E
:10083000AAF1040ADAF800A00AF03F0CDFF8BCA025
:10084000BAFBFCFA0AFB08FABAFBF9F6B1F806A003
:10085000BAF5007F0ED14FEA162A0AEB8A0A4FEA50
:100860004A0AD1F808B0BAFBFBFA0AF1050A1FFAE6
:100870008AF20FE04FEA471AB6FBFAFA0AEB8A0A45
:100880004FEA4A0AD1F808B0BAFBFBFA0AF1050AA6
:100890001FFA8AF24FF00A0AB2FBFAF202F00104E0
:1008A000A2EB040ACAF34F034FF6FF7A0AEA0424C4
:1008B000022B01DBFF2B01DD02230024B1F806A08F
:1008C0004AEA040A4AEA030AA0F820A0B1F804A000
:1008D000B1F80CB04AEA0B0AB1F802B04AEA0B0AC6
:1008E000B1F800B04AEA0B0A4AF4006A4AEA050580
:1008F0008583BDE8F08F00000838024000127A00BE
:100900001CB50121084600F0DDF800208DF8040038
:100910008DF806000120009002208DF807000320CA
:100920008DF8050069460248FFF798FD1CBD0000E0
:10093000000002401CB50121880300F0F3F80021FB
:10094000084600F0EDF9012000908DF80600002027
:100950008DF8040008208DF805006846FFF7EEFCCE
:100960001CBD00001CB50121082000F0ABF80120DF
:100970008DF8040000208DF806008DF807004FF474
:100980007040009002208DF8050069460148FFF78D
:1009900065FD1CBD000C024010B50121042000F0D3
:1009A00091F800F06FFC00F0BBFB01210348FFF75A
:1009B000E7FE034800F02AFD10BD0000003C0040A7
:1009C0004C0000200EB50121084600F08BF85320A2
:1009D000ADF800000020ADF802001A480190002098
:1009E000ADF808008DF80A0069464FF0804000F02D
:1009F000DBFA0121880700F0B0FA012211469007C6
:100A000000F0C8FA0121082000F06CF82920ADF8A8
:100A100000000020ADF802000A4801900020ADF867
:100A200008008DF80A006946074800F0BDFA012168
:100A3000054800F092FA01221146034800F0AAFA94
:100A40000EBD00003F420F00000C004070B50021B9
:100A500000230F22C4781CB3174C246804F4E0640C
:100A6000C4F5E064C4F30721C1F10404E3B20A4110
:100A700044789C40E1B28478144021430C07210E55
:100A80000E4C05786155047804F01F050124AC4034
:100A900005786D11AD0005F1E025C5F8004109E0CC
:100AA000047804F01F050124AC40054D067876114A
:100AB00045F8264070BD00000CED00E000E400E0C9
:100AC00080E100E029B1064A12680243044B1A6033
:100AD00004E0034A12688243014B1A607047000029
:100AE0003038024029B1064A12680243044B1A60AA
:100AF00004E0034A12688243014B1A607047000009
:100B00004038024029B1064A12680243044B1A6079
:100B100004E0034A12688243014B1A6070470000E8
:100B20002038024029B1064A12680243044B1A6079
:100B300004E0034A12688243014B1A6070470000C8
:100B40004438024029B1064A12680243044B1A6035
:100B500004E0034A12688243014B1A6070470000A8
:100B600024380240F0B5002100220024022500268E
:100B70000223324F3F6807F00C0121B1042905D050
:100B8000082937D105E02E4F076036E02D4F07606A
:100B900033E02A4F3F1F3F68C7F38056274F3F1F60
:100BA0003F6807F03F036EB1264FB7FBF3F7DFF85E
:100BB0008CC0ACF1040CDCF800C0CCF3881C07FB43
:100BC0000CF40CE01E4FB7FBF3F7DFF870C0ACF18C
:100BD000040CDCF800C0CCF3881C07FB0CF4174FA6
:100BE0003F1F3F68C7F301477F1C7D00B4FBF5F74B
:100BF000076002E0124F076000BF00BF0F4F3F6861
:100C000007F0F0010909104F7A5C0768D740476088
:100C10000A4F3F6807F4E051890A0B4F7A5C476836
:100C2000D7408760054F3F6807F46041490B064F86
:100C30007A5C4768D740C760F0BD000008380240C2
:100C40000024F40000127A003A000020014988666E
:100C5000704700000000474210B504462448844213
:100C600008D101218014FFF76DFF0021A014FFF7C8
:100C700069FF3CE01F48844208D101210014FFF7BE
:100C800041FF00212014FFF73DFF30E01A48844265
:100C900008D10121C013FFF735FF0021E013FFF752
:100CA00031FF24E01548844208D101214014FFF7A8
:100CB00049FF00216014FFF745FF18E01048844207
:100CC00009D101210805FFF73DFF00214FF48010F5
:100CD000FFF738FF0BE00B48844208D1012148059B
:100CE000FFF730FF00214FF40010FFF72BFF10BD7E
:100CF0000030014000380040003C0040003401401A
:100D000000500140005401400246002013890B406E
:100D10000BB1012000E00020704781817047000086
:100D200030B500228B071C0F0F2303FA04F20B4B84
:100D30008C1053F824309343084C8D1044F8253020
:100D400023468C1053F824308C07240F00FA04F447
:100D50002343024C8D1044F8253030BD0838014043
:100D60000CB50020019000903448006840F48030B9
:100D70003249086000BF3148006800F4003000903C
:100D80000198401C0190009818B90198B0F5A04F47
:100D9000F1D12A48006800F4003010B10120009021
:100DA00001E0002000900098012846D123484030FF
:100DB000006840F0805021494031086020480068B8
:100DC00040F440401E4908601C48083000681B4938
:100DD000083108600846006840F400400860084692
:100DE000006840F4A05008601648091F0860081FFA
:100DF000006840F08070091F086000BF0F4800685D
:100E000000F000700028F9D040F205700E4908602B
:100E10000A480830006820F00300084908310860DB
:100E20000846006840F00200086000BF0348083030
:100E3000006800F00C000828F8D10CBD0038024012
:100E40000070004008544007003C024010B51548AF
:100E5000006840F47000134908601348006840F0CF
:100E600001001149086000200F49083108600E4850
:100E700000680E4908400C4908600D48091D0860CB
:100E8000081F006820F48020091F08600020064920
:100E90000C310860FFF764FF4FF0006001498039B2
:100EA000086010BD88ED00E000380240FFFFF6FE4C
:100EB0001030002410B50121880700F05AF828B33B
:100EC0000121880700F046F81148006811490968B7
:100ED00088420BDA1048008881B21048FFF736FBD1
:100EE0000B480068401C0A4908600FE000214FF0E1
:100EF000804000F032F80848008881B20748FFF7C8
:100F00001AFB00200649086000F0DAFA10BD000064
:100F1000000000200400002010000020000C02400F
:100F20001800002010B50121084800F022F860B137
:100F30000121064800F00EF805480068042802DA8E
:100F400000F020FC01E000F071F810BD000C004042
:100F500008000020CA430282704721B1028842F093
:100F60000102028004E002884FF6FE731A400280FC
:100F7000704730B50246002000230024158A05EA98
:100F80000103958905EA010413B10CB1012000E0C9
:100F9000002030BD1AB183890B43838102E083892D
:100FA0008B4383817047000000220288184B9842CF
:100FB0000ED0184B98420BD0B0F1804F08D0164B92
:100FC000984205D0154B984202D0154B984204D157
:100FD0004FF68F731A404B881A43124B984207D032
:100FE000114B984204D04FF6FF431A400B891A4325
:100FF00002804B68C3620B880385054B984202D080
:10100000044B984201D18B7A038601238382704777
:1010100000000140000401400004004000080040BE
:10102000000C0040001000400014004010B50024E7
:1010300034480068002864DD32480068012804D183
:10104000002030490860012407E02E48006801288C
:1010500003DD00202B49086002242B48006890BB68
:10106000012C0BD129480068401C2849086008461B
:10107000006800F00FFB254908603EE0022C3CD1DF
:101080002248006830B101280AD002280ED0032877
:1010900018D111E04FF480511E2000F09DF911E0AD
:1010A0004FF40051062000F097F90BE04FF4804117
:1010B0002D2000F091F905E04FF40041232000F0CD
:1010C0008BF900BF19E0FFE70F480068012814D131
:1010D000012C03D100200E4908600EE0022C0CD137
:1010E00000216007FFF739FF002007490860094821
:1010F000008881B20848FFF71EFA00210748FFF771
:101100002CFF10BD14000020180000201C0000203F
:101110000000002010000020000C0240000C0040E5
:101120007CB5FF2410215548FFF705FA544D00E027
:101130006D1E002DFCD10D208DF8000001208DF8D2
:1011400001000221684600F0D5FA00208DF8000069
:1011500099208DF801000221684600F0CBFA472063
:101160008DF8000080208DF801000221684600F013
:10117000C1FA322000F01EFA044632208DF8000039
:1011800044F080008DF801000221684600F0B2FAB8
:10119000322000F00FFA044632208DF8000024F0CF
:1011A00080008DF801000221684600F0A3FA0020BB
:1011B0008DF800008DF801000221684600F09AFACF
:1011C00004208DF80000AF208DF801000221684650
:1011D00000F090FA0D208DF8000070208DF80100CD
:1011E0000221684600F086FA05208DF80000812073
:1011F0008DF801000221684600F07CFA06208DF887
:10120000000007208DF801000221684600F072FA04
:101210000A208DF8000000208DF8010002216846A8
:1012200000F068FA27208DF8000000208DF80100FA
:101230000221684600F05EFA9A208DF800000A202C
:101240008DF801008DF802000321684600F052FA83
:101250001F208DF800000F208DF801000221684644
:1012600000F048FA02208DF800009E208DF8010061
:101270000221684600F03EFA7CBD0000000C0240EE
:1012800040420F001CB56846FFF757F91020009048
:1012900001208DF8040002208DF8070000208DF851
:1012A000060002208DF8050001210B20FFF70AFC43
:1012B00069464048FFF7D2F802208DF8040001206B
:1012C0008DF806004FF41070009000208DF8070094
:1012D00002208DF8050069463748FFF7BFF8042261
:1012E00006213548FFF702F9042209213248FFF7A9
:1012F000FDF801214FF40210FFF7F4FB0120FFF786
:10130000A5FC00208DF806004FF4A450009069461B
:101310002A48FFF7A3F81020009069462848FFF7F5
:101320009DF8062204212648FFF7E0F8062207214F
:101330002248FFF7DBF806220A212048FFF7D6F8FB
:1013400006220C211D48FFF7D1F810211948FFF79C
:10135000F0F81C48FFF780FC4BF680301A49886093
:101360004FF40070C880002088804FF4007008801F
:101370000020488088811348FFF70EFA1348FFF7D2
:1013800017F913481349086000208880332008812A
:101390004FF480604881000188814BF6FF70C8805F
:1013A00001210A48FFF7F7F80A490848FFF766F9EC
:1013B0001CBD0000000C0240000402400008024076
:1013C00000000240003C004090000020005400401B
:1013D000A0860100A000002070B504460D46074815
:1013E000056007480460002006490860012006499E
:1013F000086001218007FFF7B0FD70BD10000020DC
:10140000040000200000002018000020002280F8C6
:101410004020002107E09FED150A00EB810282EDDC
:10142000000A4A1CD1B20829F5DB9FED110A80EDB4
:10143000080A9FED100A80ED090A9FED0F0A80ED62
:101440000A0A9FED0E0A80ED0B0A9FED0C0A80ED53
:101450000C0A9FED090A80ED0D0A9FED060A80ED4A
:101460000E0A9FED030A80ED0F0A7047000000008E
:101470000AD7233CCDCC4C3D8FC2F53D0AD7A33EC5
:10148000FFF73EFAFFF76EFAFFF79CFAFEF7B2FF9E
:10149000FFF750FAFEF79CFFFFF77EFA0AE00648D6
:1014A0000068042806D10548006800F0F3F805201C
:1014B00001490860F3E70000080000201C0000203C
:1014C00010B52DED048B00202E49086051E002215B
:1014D0002D48FFF719FC00284BD02C48008881B21A
:1014E0002948FFF71AFC2748006800F00100D8B32C
:1014F0009FED270B53EC102B274890ED000B51EC80
:10150000100B00F041FC0CD29FED240B53EC102B80
:10151000214890ED000B51EC100B00F06BFC1E4AC3
:1015200003C21D4890ED000B51EC100B00F0DCF9EC
:1015300008EE100AB0EE480A1A4800F0A7F91A4857
:1015400080ED000A006800F03FFD41EC190B9FEDB3
:10155000170B53EC102B00F019FB41EC180B00F0AB
:10156000A9FA00B20949088006480068401C0549EC
:101570000860044800684BF681318842A7D3BDEC6F
:10158000048B10BD34000020003C004038000020D7
:10159000000000000000F03F2800002000000000D4
:1015A000000000404C00002030000020000000003F
:1015B00000407F4070B50446002500BF4FF4003165
:1015C0003048FFF73DF80028F8D101212D48FFF7FA
:1015D0001FF800BF2C492B48FFF732F80028F9D03C
:1015E000002294212748FFF7C1F800BF274925486A
:1015F000FEF7BCFF0028F9D021462248FFF7BEF8CD
:1016000000BF2249891E1F48FEF7B0FF0028F8D00E
:1016100001211C48FFF708F800BF4FF400311948BA
:10162000FFF70EF80028F8D100211648FEF792FFC8
:1016300001211448FEF7ECFF00BF13491148FEF7E3
:10164000FFFF0028F9D0012294210E48FFF78EF801
:1016500000BF0F490B48FEF789FF0028F9D000BFF3
:101660000B493E310748FEF781FF0028F8D00548B6
:10167000FFF778F8054601210248FEF7D5FF284616
:1016800070BD0000005400400100001082000700FF
:101690000200030010B50446032C00DD00244FF4C3
:1016A00070411348FEF745FF34B1012C0AD0022CDB
:1016B0000ED0032C18D111E04FF480510C48FEF7E6
:1016C0003AFF11E04FF400510948FEF734FF0BE0F8
:1016D0004FF480410648FEF72EFF05E04FF400412D
:1016E0000348FEF728FF00BF00BF204610BD0000E2
:1016F000000C024070B505460E46002400BF4FF4B2
:1017000000311D48FEF79CFF0028F8D101211A483E
:10171000FEF77EFF00BF19491748FEF791FF00282A
:10172000F9D0002294211448FFF720F800BF144993
:101730001148FEF71BFF0028F9D00DE0295D0E4887
:10174000FFF71CF8601CC4B200BF0D49891E0A488F
:10175000FEF70CFF0028F8D0B442EFDB00BF0749CA
:10176000C91C0548FEF76CFF0028F8D0012102488B
:10177000FEF75AFF70BD0000005400400100001049
:101780008200070010B53D48006803284FDA3C4846
:10179000006878B94FF480413A48FEF7CAFE4FF42A
:1017A00080513848FEF7C7FE35480068401C344970
:1017B000086062E03248006801280ED1C103314858
:1017C000FEF7B7FE4FF400512E48FEF7B4FE2C484A
:1017D0000068401C2A4908604FE029480068022838
:1017E0000ED1C1022748FEF7A4FE4FF480412548E0
:1017F000FEF7A1FE22480068401C214908603CE039
:101800001F480068032838D14FF400511D48FEF7E7
:1018100090FE4FF400411B48FEF78DFE0020184952
:10182000086016480068401C1449086025E0134809
:101830000068032821D11248006850B94FF4804154
:101840001048FEF776FE0E480068401C0C49086000
:1018500013E00B48006801280FD1C1030948FEF7C7
:1018600068FE00200649086004480068401C0349DF
:10187000086000210448FFF770FB10BD080000203D
:101880000C000020000C0240000C0040F0EE400A6A
:101890009FED141AB0EE410A90F8401000EB81035E
:1018A000C3ED000A002214E000F1200303EB8203E1
:1018B000D3ED001A8B1803F0070300EB830393EDBD
:1018C000002AB0EE401A01EE821AB0EE410A531C13
:1018D0009AB2082AE8DB4B1C99B201F0070180F8A4
:1018E000401070470000000021F00042A2F1605259
:1018F000B2F5801F01F0004328BFD2F17F6C0BD9F5
:101900005FEA001C43EAC20242EB507018BF704706
:1019100028BF20F001007047B2F5801FBCBF1846F9
:1019200070474FEA410C1CF5001F02D2084600F038
:10193000C1BB70B500F0D4F900000089FFF7F6BF15
:101940004FF00040A0F580007047000010B591EA0C
:10195000030F48BF83F0004300F15482841A71EBF7
:10196000030C05D2121943EB0C03001B61EB0C01B5
:10197000DFF824E14FEA1154A4EB135C1EEA430F95
:1019800018BF9EEA445F73D023EA0E03DCF1200EF9
:1019900021EA045143F4801332D322FA0CFE10EBF7
:1019A0000E0023FA0CFE41EB0E01CCF1200E03FADF
:1019B0000EFE10EB0E0051F10001B1F5801FCCF1CD
:1019C000200E32D201EB045112FA0EF2BDE81040A3
:1019D00058BF7047401C38BF5FEA420218BF7047CB
:1019E000002814BF20F0010041F100014FEA41033B
:1019F00013F5001F38BF7047A1F1C04100F0BEB918
:101A0000012A43EB0302ACF1200CDCF11F0E32BFC4
:101A10004FF0000E23FA0CF310EB030041EB0451DE
:101A2000B4EB115FD0D0A1EB045101F5801149084E
:101A30005FEA300001EB04510ED350F1000038BFD3
:101A400012FA0EFE08D1BDE81040C9E7401C38BFAD
:101A50005FEA4202CAD1C3E7BDE810404FEA410342
:101A600013F5001F38BF7047A1F1C04100F086B9DF
:101A70009EEA445F08D011EA5E0FBDE8104004BF43
:101A800001F0004100207047BDE8104070B500F043
:101A900027F900BF64FBBE3E0000E0FF491058BFBD
:101AA000C1F140415B1058BFC3F140438B42EFF39B
:101AB000008070474FEA41034FEA5353A3F5806318
:101AC000D3F11E03C8BFD3F1210C0CDD4FF000424F
:101AD00042EAC12242EA505232FA03FC8CEAE17C2B
:101AE000ACEBE1707047102BC4BF0020704703F5CA
:101AF000787CBCF1FF3F04D06FF0004282EA210005
:101B0000704770B500F0ECF84992248000207047CF
:101B1000F2E7000051EA030C17D41CF5801F58BFF0
:101B2000BCF5801F00F10680994218BF704708BFBE
:101B30009042704707D711F5801F58BF13F5801FDB
:101B400019D499427047894270471CF5801F08D507
:101B5000BCF5801FF7D58B4218BF704708BF824283
:101B600070474FF4001C1CEB410F38BF1CEB430FB8
:101B700001D28B42704770B500F0B2F89224490050
:101B80004FF000514FF08053FFF788BFDFF848C196
:101B900070B51CEA111E1EBF1CEA13159EEA0C0F3D
:101BA00095EA0C0F00F06F8081EA030423EA4C13DE
:101BB0004EEAD47E21EA4C1141F4801143F48013A3
:101BC000AE44A1FB024CA0FB0365AEF17F7E36194B
:101BD00055EB0C05A1FB034C4CF10003A0FB021CD0
:101BE00016EB0C06654153F10003094218BF46F09D
:101BF000010613F4007F0BD14FEA03314FEA0530A1
:101C0000340341EA155140EA16506FF003020AE02E
:101C10004FEAC3214FEAC520F40241EA555140EA98
:101C200056506FF0020202EB2E4201EB025585EA9C
:101C3000CE710AD05FEA440C18BF24F0004450F182
:101C4000000041F1000120EAD47040F2FE7C6245C0
:101C500000D270BDA84214BF4FF080444FF0404402
:101C6000002E08BF0024BEF1806FA8BFA1F1C041C3
:101C7000BDE8704080F282804FF0000001F1C04169
:101C800001F0004170479EEA0C0F0CEA131518BFD3
:101C900095EA0C0F06D04FF0000081EA030E0EF01B
:101CA000004170BD00F01CF88900013E00F007B84B
:101CB00000F009B84FEA430C5FEA5C5C08D081EAA7
:101CC000030100F05BB84FEA410C5FEA5C5CF6D1BF
:101CD0004FF00000014970470000FF070000F87F47
:101CE0000EF1020E2EF0030E5EF8046B364205D4A0
:101CF000012A43EB030515F5001F12D8012841EB1B
:101D0000010C1CF5001F0CD80ED14FEAD17C15F543
:101D1000001F0CEB4C0C0CF1020C08BF4CEBD37CFD
:101D200004E04FF0080C01E04FEAD37C0CEB4C05CB
:101D300026FA05F606F00706B6F1040C06D20EEBFD
:101D4000860CBDE870404CF0010C6047DFE80CF0F9
:101D5000090B02024FF000414FF00000A1F50021F5
:101D600070BD19461046012851EB010418BFD4F587
:101D7000001484BF002001F0004170BD0808A0F5E8
:101D800000114FEA3101704753EA010C17D41CF5DA
:101D9000801F58BFBCF5801F00F106808B4218BF22
:101DA000704708BF8242704707D713F5801F58BF9E
:101DB00011F5801F19D48B4270479B4270471CF568
:101DC000801F08D5BCF5801FF7D5994218BF704712
:101DD00008BF904270474FF4001C1CEB430F38BF04
:101DE0001CEB410F01D2994270470FB40CBC03BCED
:101DF000FFF7C1BE10B591EA030F48BF83F000435F
:101E00003FF5ACAD841A71EB030C07D212198CF0BC
:101E1000004C43EB0C03001B61EB0C01DFF8A4E169
:101E20004FEA1154A4EB135C1EEA430F18BF9EEA5D
:101E3000445F00F0B08023EA6E03524221EA04516D
:101E4000C3EB6E0338BF5B1EDCF1200E25D322FAF4
:101E50000CFE10EB0E0043FA0CFE41EB0E01CCF130
:101E6000200E03FA0EFE10EB0E0051F10001CCF132
:101E7000200E29D412FA0EF201EB0451BDE81040F5
:101E800058BF7047401C1CBFB2F1004F704700287C
:101E90000CBF491C20F00100704712EB020E43EB0F
:101EA000030218BF4FF0010E4EEA4202ACF1200CC3
:101EB000DCF11E0E54D943FA0CFE10EB0E0051F16A
:101EC000FF31CCF11E0ED5D50EF1010E12FA0EFE29
:101ED000404141EB010101EB445C5FEA5C5C10D9DD
:101EE00010EBDE7001EB045138BFBEF1004FBDE8CE
:101EF000104018BF704700280CBF491C20F001009B
:101F0000704730D24FEAD42C11F5001124F400644C
:101F10001BD0B1FA81F20B3AA41AA41ED2F120030D
:101F2000914030FA03F31943904001EBCC71002C3F
:101F300001EB0451BDE81040A8BF704701F1C0415A
:101F40004FF0000001F000417047B0FA80F310FA42
:101F500003F100D110BDE41A173C4805C90AE4E7B3
:101F600001EB045110BD491001EB0451BDE81040D4
:101F70004FEA300002E04FF0000170474A0008BF0E
:101F80000042F8D0B2F5001F28BF704701F00041B1
:101F90004FF0000070479EEA445F07D011EA5E0FE1
:101FA000BDE8104004BF002100207047BDE810408C
:101FB00070B5FFF795FE00BF40DFF63E83F00041AD
:101FC000104670470000E0FF43004FEAD30C4FEA91
:101FD0003C0C43401FBF40070CF1605113F0FE4F13
:101FE00070471CF0006F03D100200CF000417047D7
:101FF0000CF0004343EA507010B540EACC0000F00A
:102000000EF800BF000000924FEA0001FFF7B6BED5
:102010004FF000414FF00000A1F5002170470EF194
:10202000020E2EF0030E5EF8044B244204D44FEA55
:102030004102B2F17F4F11D84FEA4003B3F17F4F15
:102040000CD80ED14FEAD07CB2F17F4F0CEB4C0C88
:102050000CF1020C08BF4CEBD17C04E04FF0080CF3
:1020600001E04FEAD17C0CEB4C0324FA03F404F0BA
:102070000704B4F1040C06D20EEB840CBDE810404A
:102080004CF0010C6047DFE80CF0070802024FF04B
:102090000040A0F5800010BD0846420018BFD2F1F4
:1020A000807288BF00F0004010BD4FF04070E1EE3C
:1020B000100A7047FF2141EAD050C0057047000068
:1020C000E0200008000000204C000000C4010008CF
:1020D0002C2100084C000020C4060000E00100088C
:1020E00000000000000000000000000000000000F0
:1020F00000000000000000000000000000000000E0
:1021000000000000000000000000000000000000CF
:1021100000000000000000000000000000000102BC
:0C21200003040102030406070809000084
:0400000508000229C4
:00000001FF
