:020000040800F2
:10000000800600202902000831020008330200089F
:10001000350200083702000839020008000000001D
:100020000000000000000000000000003B0200088B
:100030003D020008000000003F02000841020008E5
:10004000430200084302000843020008430200087C
:10005000430200084302000843020008430200086C
:10006000430200084302000843020008430200085C
:10007000430200084302000843020008430200084C
:10008000430200084302000843020008430200083C
:10009000430200084302000843020008430200082C
:1000A000430200084302000843020008430200081C
:1000B000B906000843020008430200084302000892
:1000C00043020008430200084302000843020008FC
:1000D00043020008430200084302000843020008EC
:1000E00043020008430200084302000843020008DC
:1000F00043020008430200084302000843020008CC
:1001000043020008430200084302000843020008BB
:1001100043020008430200084302000843020008AB
:10012000430200084302000843020008430200089B
:10013000430200084302000843020008430200088B
:10014000430200084302000843020008430200087B
:10015000430200084302000843020008430200086B
:10016000430200084302000843020008430200085B
:10017000430200084302000843020008430200084B
:10018000430200084302000800F002F800F03CF8C7
:100190000AA090E8000C82448344AAF10107DA45E2
:1001A00001D100F031F8AFF2090EBAE80F0013F0F8
:1001B000010F18BFFB1A43F0010318479008000015
:1001C000B0080000103A24BF78C878C1FAD85207A6
:1001D00024BF30C830C144BF04680C6070470000C1
:1001E0000023002400250026103A28BF78C1FBD840
:1001F000520728BF30C148BF0B6070471FB500F0E1
:100200001FFC1FBD10B510BD00F031F81146FFF7FF
:10021000F5FF00F025FB00F04FF803B4FFF7F2FF05
:1002200003BC00F057F80000094880470948004720
:10023000FEE7FEE7FEE7FEE7FEE7FEE7FEE7FEE796
:10024000FEE7FEE704480549054A064B70470000F3
:100250005106000889010008800000208006002067
:10026000800200208002002070477047704775466A
:1002700000F02CF8AE4605006946534620F0070012
:10028000854618B020B5FFF7DDFFBDE820404FF0F0
:1002900000064FF000074FF000084FF0000B21F070
:1002A0000701AC46ACE8C009ACE8C009ACE8C0093D
:1002B000ACE8C0098D46704710B50446AFF3008026
:1002C0002046BDE81040FFF7A8BF00000048704777
:1002D0001C00002001491820ABBEFEE726000200EA
:1002E000704708B51C208DF8000000208DF8010033
:1002F00001208DF80300684600F0D8F832208DF810
:10030000000000208DF8010001208DF803006846F0
:1003100000F0CCF808BDF0B50A4600210023002407
:1003200000BF3DE0012505FA01F3156805EA030465
:100330009C4234D105684F000326BE40B54305609A
:1003400015794E00B5400668354305601579012DD5
:1003500002D01579022D16D185684F000326BE40C4
:10036000B543856055794E00B54086683543856054
:10037000456801268E40B5434560456896798E40B4
:10038000B6B235434560C5684F000326BE40B5434D
:10039000C560D5794E00B540C6683543C560491C77
:1003A0001029BFD3F0BD0246002013690B400BB1EA
:1003B000012000E0002070474183704701837047AF
:1003C00042694A40426170471CB50121084600F06D
:1003D000A9F800208DF804008DF806000120009097
:1003E00002208DF807008DF8050069460148FFF7E7
:1003F00092FF1CBD000002401CB50121082000F046
:1004000091F801208DF8040000208DF806008DF889
:1004100007004FF47040009002208DF805006946F7
:100420000148FFF778FF1CBD000C024010B5012108
:10043000084600F087F849F640401A490880002035
:1004400048804FF4FA7048600020088188724FF0AD
:10045000804000F087F90121880700F05AF9012255
:100460001146900700F075F90121082000F06AF8A4
:1004700049F640400B490880002048804FF4FA704C
:100480004860002008818872074800F06BF901215C
:10049000054800F03EF901221146034800F059F9E1
:1004A00010BD000010000020000C004070B50021BD
:1004B00000230F22C4781CB3174C246804F4E064B2
:1004C000C4F5E064C4F30721C1F10404E3B20A41B6
:1004D00044789C40E1B28478144021430C07210EFB
:1004E0000E4C05786155047804F01F050124AC40DA
:1004F00005786D11AD0005F1E025C5F8004109E072
:10050000047804F01F050124AC40054D06787611EF
:1005100045F8264070BD00000CED00E000E400E06E
:1005200080E100E029B1064A12680243044B1A60D8
:1005300004E0034A12688243014B1A6070470000CE
:100540003038024029B1064A12680243044B1A604F
:1005500004E0034A12688243014B1A6070470000AE
:10056000403802400CB500200190009034480068EB
:1005700040F480303249086000BF3148006800F420
:10058000003000900198401C0190009818B9019823
:10059000B0F5A04FF1D12A48006800F4003010B146
:1005A0000120009001E0002000900098012846D131
:1005B00023484030006840F08050214940310860B5
:1005C0002048006840F440401E4908601C4808303C
:1005D00000681B49083108600846006840F4004084
:1005E00008600846006840F4A05008601648091FDB
:1005F0000860081F006840F08070091F086000BF95
:100600000F48006800F000700028F9D040F2057033
:100610000E4908600A480830006820F003000849C5
:10062000083108600846006840F00200086000BF1A
:1006300003480830006800F00C000828F8D10CBD11
:10064000003802400070004019544007003C02404E
:1006500010B51548006840F470001349086013484D
:10066000006840F001001149086000200F4908317E
:1006700008600E4800680E4908400C4908600D48A3
:10068000091D0860081F006820F48020091F086009
:10069000002006490C310860FFF764FF4FF000604E
:1006A00001498039086010BD88ED00E00038024043
:1006B000FFFFF6FE1030002410B50121880700F07E
:1006C00037F8C8B10121880700F020F80B4800680E
:1006D0000B490968884206DA0A48008881B20A484C
:1006E000FFF76EFE08E00548006805490968884282
:1006F00002D13C200149086010BD00000400002028
:10070000080000200C000020000C0240CA430282B6
:10071000704721B1028842F00102028004E00288A1
:100720004FF6FE731A40028070470146486A7047D0
:1007300030B50246002000230024158A05EA010393
:10074000958905EA010413B10CB1012000E00020F5
:1007500030BD1AB183890B43838102E083898B43C7
:100760008381704700220288184B98420ED0184BA4
:1007700098420BD0B0F1804F08D0164B984205D06C
:10078000154B984202D0154B984204D14FF68F7307
:100790001A404B881A43124B984207D0114B98428B
:1007A00004D04FF6FF431A400B891A4302804B686E
:1007B000C3620B880385054B984202D0044B9842D4
:1007C00001D18B7A038601238382704700000140A8
:1007D000000401400004004000080040000C0040FC
:1007E00000100040001400402DE9F0470027B846F3
:1007F000B9461948066807E001211848FFF7D3FDFC
:100800000446012C00D1814613480068801B6428EF
:10081000F2D3B9F1010F1CD109F0FF040FE0254616
:1008200001210E48FFF7BFFD04460CB908F101088D
:100830002DB9012C03D1B8F1960F00DD022706482F
:100840000068801B40F28A218842E8D3022F00D042
:1008500001273846BDE8F087000000200000024074
:100860000EB500244FF4805677004FF48048F50011
:100870004FF0030A4FF0040B052002900620019070
:100880004FF00009FFF7A0FDFFF7B6FDFFF7CEFD23
:10089000FFF727FD00F088F847E043463A46314627
:1008A0002046009500F048F8FFF79EFF8146B9F119
:1008B000010F09D1641C43463A4631462046009553
:1008C00000F03AF8044630E0B9F1020F2DD134B10E
:1008D000012C0DD0022C14D0032C25D11BE0134881
:1008E00006601348C0F800A00020124908601BE011
:1008F0000E4807600E48C0F800B000200D4908609F
:1009000012E00A48C0F800800949029808600020F7
:100910000849086008E00548056005490198086035
:1009200000200449086000BF00BFB6E70C000020AB
:1009300008000020040000202DE9F04104460D4687
:1009400016461F46DDF81880032C00DD002445EA1A
:100950000600384340EA080081B21248FFF72CFD38
:1009600034B1012C09D0022C0CD0032C15D10EE08F
:10097000A9B20C48FFF722FD0FE0B1B20948FFF71A
:100980001DFD0AE0B9B20748FFF718FD05E01FFAA0
:1009900088F10448FFF712FD00BF00BF2046BDE804
:1009A000F0810000000C024070B52348FFF7BDFE47
:1009B0000546002400BF37E07D2D07D0FA2D10D06A
:1009C000A5F27710C0B17D282CD120E04FF48041F2
:1009D0001A48FFF7F1FC4FF480511848FFF7EEFC7E
:1009E00020E04FF400411548FFF7E6FC4FF40051BA
:1009F0001248FFF7E3FC15E04FF480510F48FFF772
:100A0000DBFC4FF480410D48FFF7D8FC0AE04FF4BF
:100A100000510A48FFF7D0FC4FF400410748FFF7A8
:100A2000CDFC00BF00BF641C032CC5DB4FF470413C
:100A30000248FFF7C1FC70BD000C0040000C0240F2
:100A40004FF04070E1EE100A704700006C0A000899
:100A50000000002010000000C40100087C0A00080B
:100A60001000002070060000E001000800000000F7
:0C0A70003C00000000000000000000003E
:0400000508000229C4
:00000001FF
